{
  "contractName": "BoltTokenProxy",
  "abi": [
    {
      "inputs": [
        {
          "internalType": "uint256",
          "name": "_initialSupply",
          "type": "uint256"
        },
        {
          "internalType": "uint256",
          "name": "_currenSupply",
          "type": "uint256"
        },
        {
          "internalType": "string",
          "name": "_name",
          "type": "string"
        },
        {
          "internalType": "string",
          "name": "_symbol",
          "type": "string"
        },
        {
          "internalType": "uint8",
          "name": "_numberOfDecimals",
          "type": "uint8"
        }
      ],
      "stateMutability": "nonpayable",
      "type": "constructor"
    },
    {
      "inputs": [],
      "name": "getAddressOfImplementation",
      "outputs": [
        {
          "internalType": "address",
          "name": "",
          "type": "address"
        }
      ],
      "stateMutability": "view",
      "type": "function",
      "constant": true
    },
    {
      "inputs": [
        {
          "internalType": "address",
          "name": "_implementationAddress",
          "type": "address"
        }
      ],
      "name": "setAddressOfImplementation",
      "outputs": [],
      "stateMutability": "nonpayable",
      "type": "function"
    },
    {
      "inputs": [],
      "name": "totalSupply",
      "outputs": [
        {
          "internalType": "uint256",
          "name": "",
          "type": "uint256"
        }
      ],
      "stateMutability": "view",
      "type": "function",
      "constant": true
    },
    {
      "inputs": [],
      "name": "getInitialSupply",
      "outputs": [
        {
          "internalType": "uint256",
          "name": "",
          "type": "uint256"
        }
      ],
      "stateMutability": "view",
      "type": "function",
      "constant": true
    },
    {
      "inputs": [],
      "name": "getOwner",
      "outputs": [
        {
          "internalType": "address",
          "name": "",
          "type": "address"
        }
      ],
      "stateMutability": "view",
      "type": "function",
      "constant": true
    },
    {
      "inputs": [],
      "name": "getName",
      "outputs": [
        {
          "internalType": "string",
          "name": "",
          "type": "string"
        }
      ],
      "stateMutability": "view",
      "type": "function",
      "constant": true
    },
    {
      "inputs": [],
      "name": "getSymbol",
      "outputs": [
        {
          "internalType": "string",
          "name": "",
          "type": "string"
        }
      ],
      "stateMutability": "view",
      "type": "function",
      "constant": true
    },
    {
      "inputs": [
        {
          "internalType": "address",
          "name": "user",
          "type": "address"
        }
      ],
      "name": "balanceOf",
      "outputs": [
        {
          "internalType": "uint256",
          "name": "",
          "type": "uint256"
        }
      ],
      "stateMutability": "view",
      "type": "function",
      "constant": true
    },
    {
      "inputs": [],
      "name": "getNumberOfDecimals",
      "outputs": [
        {
          "internalType": "uint8",
          "name": "",
          "type": "uint8"
        }
      ],
      "stateMutability": "view",
      "type": "function",
      "constant": true
    }
  ],
  "bytecode": "0x60806040523480156200001157600080fd5b5060405162000cf338038062000cf383398181016040528101906200003791906200023a565b846000819055508360018190555033600260006101000a81548173ffffffffffffffffffffffffffffffffffffffff021916908373ffffffffffffffffffffffffffffffffffffffff16021790555082600390805190602001906200009e929190620000de565b508160049080519060200190620000b7929190620000de565b5080600260146101000a81548160ff021916908360ff1602179055505050505050620004cf565b828054620000ec90620003ac565b90600052602060002090601f0160209004810192826200011057600085556200015c565b82601f106200012b57805160ff19168380011785556200015c565b828001600101855582156200015c579182015b828111156200015b5782518255916020019190600101906200013e565b5b5090506200016b91906200016f565b5090565b5b808211156200018a57600081600090555060010162000170565b5090565b6000620001a56200019f8462000329565b62000300565b905082815260208101848484011115620001c457620001c36200047b565b5b620001d184828562000376565b509392505050565b600082601f830112620001f157620001f062000476565b5b8151620002038482602086016200018e565b91505092915050565b6000815190506200021d816200049b565b92915050565b6000815190506200023481620004b5565b92915050565b600080600080600060a0868803121562000259576200025862000485565b5b600062000269888289016200020c565b95505060206200027c888289016200020c565b945050604086015167ffffffffffffffff811115620002a0576200029f62000480565b5b620002ae88828901620001d9565b935050606086015167ffffffffffffffff811115620002d257620002d162000480565b5b620002e088828901620001d9565b9250506080620002f38882890162000223565b9150509295509295909350565b60006200030c6200031f565b90506200031a8282620003e2565b919050565b6000604051905090565b600067ffffffffffffffff82111562000347576200034662000447565b5b62000352826200048a565b9050602081019050919050565b6000819050919050565b600060ff82169050919050565b60005b838110156200039657808201518184015260208101905062000379565b83811115620003a6576000848401525b50505050565b60006002820490506001821680620003c557607f821691505b60208210811415620003dc57620003db62000418565b5b50919050565b620003ed826200048a565b810181811067ffffffffffffffff821117156200040f576200040e62000447565b5b80604052505050565b7f4e487b7100000000000000000000000000000000000000000000000000000000600052602260045260246000fd5b7f4e487b7100000000000000000000000000000000000000000000000000000000600052604160045260246000fd5b600080fd5b600080fd5b600080fd5b600080fd5b6000601f19601f8301169050919050565b620004a6816200035f565b8114620004b257600080fd5b50565b620004c08162000369565b8114620004cc57600080fd5b50565b61081480620004df6000396000f3fe608060405234801561001057600080fd5b50600436106100935760003560e01c80633d375f69116100665780633d375f691461011057806370a082311461012e57806381a4a6d81461015e578063893d20e81461017c578063bc3117b81461019a57610093565b80630ff018111461009857806315070401146100b657806317d7de7c146100d457806318160ddd146100f2575b600080fd5b6100a06101b6565b6040516100ad9190610628565b60405180910390f35b6100be6101cd565b6040516100cb91906105cb565b60405180910390f35b6100dc61025f565b6040516100e991906105cb565b60405180910390f35b6100fa6102f1565b604051610107919061060d565b60405180910390f35b6101186102fb565b60405161012591906105b0565b60405180910390f35b610148600480360381019061014391906104fa565b610325565b604051610155919061060d565b60405180910390f35b61016661036e565b604051610173919061060d565b60405180910390f35b610184610377565b60405161019191906105b0565b60405180910390f35b6101b460048036038101906101af91906104fa565b6103a1565b005b6000600260149054906101000a900460ff16905090565b6060600480546101dc906106db565b80601f0160208091040260200160405190810160405280929190818152602001828054610208906106db565b80156102555780601f1061022a57610100808354040283529160200191610255565b820191906000526020600020905b81548152906001019060200180831161023857829003601f168201915b5050505050905090565b60606003805461026e906106db565b80601f016020809104026020016040519081016040528092919081815260200182805461029a906106db565b80156102e75780601f106102bc576101008083540402835291602001916102e7565b820191906000526020600020905b8154815290600101906020018083116102ca57829003601f168201915b5050505050905090565b6000600154905090565b6000600560009054906101000a900473ffffffffffffffffffffffffffffffffffffffff16905090565b6000600660008373ffffffffffffffffffffffffffffffffffffffff1673ffffffffffffffffffffffffffffffffffffffff168152602001908152602001600020549050919050565b60008054905090565b6000600260009054906101000a900473ffffffffffffffffffffffffffffffffffffffff16905090565b600560009054906101000a900473ffffffffffffffffffffffffffffffffffffffff1673ffffffffffffffffffffffffffffffffffffffff166103e26104dd565b73ffffffffffffffffffffffffffffffffffffffff161461040257600080fd5b600260009054906101000a900473ffffffffffffffffffffffffffffffffffffffff1673ffffffffffffffffffffffffffffffffffffffff166104436104dd565b73ffffffffffffffffffffffffffffffffffffffff1614610499576040517f08c379a0000000000000000000000000000000000000000000000000000000008152600401610490906105ed565b60405180910390fd5b80600560006101000a81548173ffffffffffffffffffffffffffffffffffffffff021916908373ffffffffffffffffffffffffffffffffffffffff16021790555050565b600033905090565b6000813590506104f4816107c7565b92915050565b6000602082840312156105105761050f61073c565b5b600061051e848285016104e5565b91505092915050565b6105308161065f565b82525050565b600061054182610643565b61054b818561064e565b935061055b8185602086016106a8565b61056481610741565b840191505092915050565b600061057c60488361064e565b915061058782610752565b606082019050919050565b61059b81610691565b82525050565b6105aa8161069b565b82525050565b60006020820190506105c56000830184610527565b92915050565b600060208201905081810360008301526105e58184610536565b905092915050565b600060208201905081810360008301526106068161056f565b9050919050565b60006020820190506106226000830184610592565b92915050565b600060208201905061063d60008301846105a1565b92915050565b600081519050919050565b600082825260208201905092915050565b600061066a82610671565b9050919050565b600073ffffffffffffffffffffffffffffffffffffffff82169050919050565b6000819050919050565b600060ff82169050919050565b60005b838110156106c65780820151818401526020810190506106ab565b838111156106d5576000848401525b50505050565b600060028204905060018216806106f357607f821691505b602082108114156107075761070661070d565b5b50919050565b7f4e487b7100000000000000000000000000000000000000000000000000000000600052602260045260246000fd5b600080fd5b6000601f19601f8301169050919050565b7f4f6e6c7920746865206f776e6572206f662074686520636f6e7472616374206360008201527f616e20736574207468652061646472657373206f662074686520696d706c656d60208201527f656e746174696f6e000000000000000000000000000000000000000000000000604082015250565b6107d08161065f565b81146107db57600080fd5b5056fea264697066735822122093f862606495d4521decd5946c9a23a30e7987db091e48a63a2391ad324229ef64736f6c63430008070033",
  "immutableReferences": {},
  "source": "// SPDX-License-Identifier: MIT\npragma solidity 0.8.7;\n\nimport \"@openzeppelin/contracts/utils/Context.sol\";\nimport \"@openzeppelin/contracts/utils/Strings.sol\";\n\ncontract BoltTokenProxy is Context {\n    uint256 private initialSupply;\n    uint256 private currentSupply;\n    address private owner;\n    uint8 private numberOfDecimals;\n    string private name;\n    string private symbol;\n    address private implementationAddress;\n\n    mapping(address => uint256) private balances;\n    mapping(address => mapping(address => uint256)) private allowance;\n    \n    constructor(uint256 _initialSupply, uint256 _currenSupply, string memory _name, string memory _symbol, uint8 _numberOfDecimals) {\n        initialSupply = _initialSupply;\n        currentSupply = _currenSupply;\n        owner = msg.sender;\n        name = _name;\n        symbol = _symbol;\n        numberOfDecimals = _numberOfDecimals;\n    }\n\n    modifier onlyImplementation() {\n        require(_msgSender() == implementationAddress);\n        _;\n    }\n\n    function getAddressOfImplementation() external view returns(address){\n        return implementationAddress;\n    }\n\n    function setAddressOfImplementation(address _implementationAddress) public onlyImplementation() {\n        require(_msgSender() == owner, \"Only the owner of the contract can set the address of the implementation\");\n        implementationAddress = _implementationAddress;\n    }\n\n    function totalSupply() external view returns(uint256) {\n        return currentSupply;\n    }\n\n    function getInitialSupply() external view returns(uint256) {\n        return initialSupply;\n    }\n\n    function getOwner() external view returns(address) {\n        return owner;\n    }\n\n    function getName() external view returns(string memory) {\n        return name;\n    }\n\n    function getSymbol() external view returns(string memory) {\n        return symbol;\n    }    \n\n    function balanceOf(address user) external view returns(uint256) {\n        return balances[user];\n    }\n\n    function getNumberOfDecimals() external view returns(uint8) {\n        return numberOfDecimals;\n    }\n}",
  "sourcePath": "/Users/nick/Documents/work/StormContract/contracts/BoltTokenProxy.sol",
  "compiler": {
    "name": "solc",
    "version": "0.8.7+commit.e28d00a7.Emscripten.clang"
  },
  "schemaVersion": "3.4.2",
  "updatedAt": "2021-08-27T13:34:30.415Z",
  "networkType": "ethereum",
  "devdoc": {
    "kind": "dev",
    "methods": {},
    "version": 1
  },
  "userdoc": {
    "kind": "user",
    "methods": {},
    "version": 1
  }
}