{
  "contractName": "BoltTokenProxy",
  "abi": [
    {
      "inputs": [
        {
          "internalType": "uint256",
          "name": "_initialSupply",
          "type": "uint256"
        },
        {
          "internalType": "string",
          "name": "_name",
          "type": "string"
        },
        {
          "internalType": "string",
          "name": "_symbol",
          "type": "string"
        },
        {
          "internalType": "uint8",
          "name": "_numberOfDecimals",
          "type": "uint8"
        }
      ],
      "stateMutability": "nonpayable",
      "type": "constructor"
    },
    {
      "anonymous": false,
      "inputs": [
        {
          "indexed": true,
          "internalType": "address",
          "name": "_newAddress",
          "type": "address"
        }
      ],
      "name": "AddPerpetualAddress",
      "type": "event"
    },
    {
      "anonymous": false,
      "inputs": [
        {
          "indexed": true,
          "internalType": "address",
          "name": "_owner",
          "type": "address"
        },
        {
          "indexed": true,
          "internalType": "address",
          "name": "_spender",
          "type": "address"
        },
        {
          "indexed": false,
          "internalType": "uint256",
          "name": "_value",
          "type": "uint256"
        }
      ],
      "name": "Approval",
      "type": "event"
    },
    {
      "anonymous": false,
      "inputs": [
        {
          "indexed": true,
          "internalType": "address",
          "name": "_account",
          "type": "address"
        },
        {
          "indexed": false,
          "internalType": "uint256",
          "name": "_amount",
          "type": "uint256"
        }
      ],
      "name": "Burn",
      "type": "event"
    },
    {
      "anonymous": false,
      "inputs": [
        {
          "indexed": true,
          "internalType": "address",
          "name": "_account",
          "type": "address"
        },
        {
          "indexed": false,
          "internalType": "uint256",
          "name": "_amount",
          "type": "uint256"
        }
      ],
      "name": "Mint",
      "type": "event"
    },
    {
      "anonymous": false,
      "inputs": [
        {
          "indexed": true,
          "internalType": "address",
          "name": "previousOwner",
          "type": "address"
        },
        {
          "indexed": true,
          "internalType": "address",
          "name": "newOwner",
          "type": "address"
        }
      ],
      "name": "OwnershipTransferred",
      "type": "event"
    },
    {
      "anonymous": false,
      "inputs": [
        {
          "indexed": true,
          "internalType": "address",
          "name": "_implementationAddress",
          "type": "address"
        }
      ],
      "name": "SetAddressOfImplementation",
      "type": "event"
    },
    {
      "inputs": [],
      "name": "owner",
      "outputs": [
        {
          "internalType": "address",
          "name": "",
          "type": "address"
        }
      ],
      "stateMutability": "view",
      "type": "function"
    },
    {
      "inputs": [],
      "name": "renounceOwnership",
      "outputs": [],
      "stateMutability": "nonpayable",
      "type": "function"
    },
    {
      "inputs": [
        {
          "internalType": "address",
          "name": "newOwner",
          "type": "address"
        }
      ],
      "name": "transferOwnership",
      "outputs": [],
      "stateMutability": "nonpayable",
      "type": "function"
    },
    {
      "inputs": [],
      "name": "name",
      "outputs": [
        {
          "internalType": "string",
          "name": "",
          "type": "string"
        }
      ],
      "stateMutability": "view",
      "type": "function"
    },
    {
      "inputs": [],
      "name": "symbol",
      "outputs": [
        {
          "internalType": "string",
          "name": "",
          "type": "string"
        }
      ],
      "stateMutability": "view",
      "type": "function"
    },
    {
      "inputs": [],
      "name": "decimals",
      "outputs": [
        {
          "internalType": "uint8",
          "name": "",
          "type": "uint8"
        }
      ],
      "stateMutability": "view",
      "type": "function"
    },
    {
      "inputs": [],
      "name": "getMintedToday",
      "outputs": [
        {
          "internalType": "uint256",
          "name": "",
          "type": "uint256"
        }
      ],
      "stateMutability": "view",
      "type": "function"
    },
    {
      "inputs": [],
      "name": "totalSupply",
      "outputs": [
        {
          "internalType": "uint256",
          "name": "",
          "type": "uint256"
        }
      ],
      "stateMutability": "view",
      "type": "function"
    },
    {
      "inputs": [],
      "name": "getNumberOfDecimals",
      "outputs": [
        {
          "internalType": "uint8",
          "name": "",
          "type": "uint8"
        }
      ],
      "stateMutability": "view",
      "type": "function"
    },
    {
      "inputs": [],
      "name": "getAddressOfImplementation",
      "outputs": [
        {
          "internalType": "address",
          "name": "",
          "type": "address"
        }
      ],
      "stateMutability": "view",
      "type": "function"
    },
    {
      "inputs": [
        {
          "internalType": "address",
          "name": "_user",
          "type": "address"
        }
      ],
      "name": "balanceOf",
      "outputs": [
        {
          "internalType": "uint256",
          "name": "",
          "type": "uint256"
        }
      ],
      "stateMutability": "view",
      "type": "function"
    },
    {
      "inputs": [
        {
          "internalType": "address",
          "name": "_address",
          "type": "address"
        }
      ],
      "name": "isTheAddressAPerpetual",
      "outputs": [
        {
          "internalType": "bool",
          "name": "",
          "type": "bool"
        }
      ],
      "stateMutability": "view",
      "type": "function"
    },
    {
      "inputs": [
        {
          "internalType": "address",
          "name": "_owner",
          "type": "address"
        },
        {
          "internalType": "address",
          "name": "_spender",
          "type": "address"
        }
      ],
      "name": "allowance",
      "outputs": [
        {
          "internalType": "uint256",
          "name": "",
          "type": "uint256"
        }
      ],
      "stateMutability": "view",
      "type": "function"
    },
    {
      "inputs": [
        {
          "internalType": "address",
          "name": "_to",
          "type": "address"
        },
        {
          "internalType": "uint256",
          "name": "_value",
          "type": "uint256"
        }
      ],
      "name": "addBalance",
      "outputs": [],
      "stateMutability": "nonpayable",
      "type": "function"
    },
    {
      "inputs": [
        {
          "internalType": "address",
          "name": "_from",
          "type": "address"
        },
        {
          "internalType": "uint256",
          "name": "_value",
          "type": "uint256"
        }
      ],
      "name": "subBalance",
      "outputs": [],
      "stateMutability": "nonpayable",
      "type": "function"
    },
    {
      "inputs": [
        {
          "internalType": "address",
          "name": "_owner",
          "type": "address"
        },
        {
          "internalType": "address",
          "name": "_spender",
          "type": "address"
        },
        {
          "internalType": "uint256",
          "name": "_amount",
          "type": "uint256"
        }
      ],
      "name": "approve",
      "outputs": [
        {
          "internalType": "bool",
          "name": "",
          "type": "bool"
        }
      ],
      "stateMutability": "nonpayable",
      "type": "function"
    },
    {
      "inputs": [
        {
          "internalType": "address",
          "name": "_newAddress",
          "type": "address"
        }
      ],
      "name": "addPerpetualAddress",
      "outputs": [
        {
          "internalType": "bool",
          "name": "",
          "type": "bool"
        }
      ],
      "stateMutability": "nonpayable",
      "type": "function"
    },
    {
      "inputs": [
        {
          "internalType": "address",
          "name": "_account",
          "type": "address"
        },
        {
          "internalType": "uint256",
          "name": "_amount",
          "type": "uint256"
        }
      ],
      "name": "burn",
      "outputs": [
        {
          "internalType": "bool",
          "name": "",
          "type": "bool"
        }
      ],
      "stateMutability": "nonpayable",
      "type": "function"
    },
    {
      "inputs": [
        {
          "internalType": "uint256",
          "name": "_amount",
          "type": "uint256"
        }
      ],
      "name": "mint",
      "outputs": [
        {
          "internalType": "bool",
          "name": "",
          "type": "bool"
        }
      ],
      "stateMutability": "nonpayable",
      "type": "function"
    },
    {
      "inputs": [
        {
          "internalType": "address",
          "name": "_implementationAddress",
          "type": "address"
        }
      ],
      "name": "setAddressOfImplementation",
      "outputs": [
        {
          "internalType": "bool",
          "name": "",
          "type": "bool"
        }
      ],
      "stateMutability": "nonpayable",
      "type": "function"
    }
  ],
  "bytecode": "0x60806040523480156200001157600080fd5b506040516200269d3803806200269d83398181016040528101906200003791906200046e565b620000576200004b620000bf60201b60201c565b620000c760201b60201c565b62000068846200018b60201b60201c565b82600590805190602001906200008092919062000312565b5081600690805190602001906200009992919062000312565b5080600460006101000a81548160ff021916908360ff16021790555050505050620007fc565b600033905090565b60008060009054906101000a900473ffffffffffffffffffffffffffffffffffffffff169050816000806101000a81548173ffffffffffffffffffffffffffffffffffffffff021916908373ffffffffffffffffffffffffffffffffffffffff1602179055508173ffffffffffffffffffffffffffffffffffffffff168173ffffffffffffffffffffffffffffffffffffffff167f8be0079c531659141344cd1fd0a4f28419497f9722a3daafe3b4186f6b6457e060405160405180910390a35050565b600073ffffffffffffffffffffffffffffffffffffffff16620001b3620000bf60201b60201c565b73ffffffffffffffffffffffffffffffffffffffff1614156200020d576040517f08c379a0000000000000000000000000000000000000000000000000000000008152600401620002049062000545565b60405180910390fd5b42600381905550806002819055506200023781600154620002fa60201b620011101790919060201c565b600181905550620002a5816008600062000256620000bf60201b60201c565b73ffffffffffffffffffffffffffffffffffffffff1673ffffffffffffffffffffffffffffffffffffffff16815260200190815260200160002054620002fa60201b620011101790919060201c565b60086000620002b9620000bf60201b60201c565b73ffffffffffffffffffffffffffffffffffffffff1673ffffffffffffffffffffffffffffffffffffffff1681526020019081526020016000208190555050565b600081836200030a9190620005d7565b905092915050565b828054620003209062000681565b90600052602060002090601f01602090048101928262000344576000855562000390565b82601f106200035f57805160ff191683800117855562000390565b8280016001018555821562000390579182015b828111156200038f57825182559160200191906001019062000372565b5b5090506200039f9190620003a3565b5090565b5b80821115620003be576000816000905550600101620003a4565b5090565b6000620003d9620003d38462000590565b62000567565b905082815260208101848484011115620003f857620003f76200077f565b5b620004058482856200064b565b509392505050565b600082601f8301126200042557620004246200077a565b5b815162000437848260208601620003c2565b91505092915050565b6000815190506200045181620007c8565b92915050565b6000815190506200046881620007e2565b92915050565b600080600080608085870312156200048b576200048a62000789565b5b60006200049b8782880162000440565b945050602085015167ffffffffffffffff811115620004bf57620004be62000784565b5b620004cd878288016200040d565b935050604085015167ffffffffffffffff811115620004f157620004f062000784565b5b620004ff878288016200040d565b9250506060620005128782880162000457565b91505092959194509250565b60006200052d601f83620005c6565b91506200053a826200079f565b602082019050919050565b6000602082019050818103600083015262000560816200051e565b9050919050565b60006200057362000586565b9050620005818282620006b7565b919050565b6000604051905090565b600067ffffffffffffffff821115620005ae57620005ad6200074b565b5b620005b9826200078e565b9050602081019050919050565b600082825260208201905092915050565b6000620005e48262000634565b9150620005f18362000634565b9250827fffffffffffffffffffffffffffffffffffffffffffffffffffffffffffffffff03821115620006295762000628620006ed565b5b828201905092915050565b6000819050919050565b600060ff82169050919050565b60005b838110156200066b5780820151818401526020810190506200064e565b838111156200067b576000848401525b50505050565b600060028204905060018216806200069a57607f821691505b60208210811415620006b157620006b06200071c565b5b50919050565b620006c2826200078e565b810181811067ffffffffffffffff82111715620006e457620006e36200074b565b5b80604052505050565b7f4e487b7100000000000000000000000000000000000000000000000000000000600052601160045260246000fd5b7f4e487b7100000000000000000000000000000000000000000000000000000000600052602260045260246000fd5b7f4e487b7100000000000000000000000000000000000000000000000000000000600052604160045260246000fd5b600080fd5b600080fd5b600080fd5b600080fd5b6000601f19601f8301169050919050565b7f45524332303a206d696e7420746f20746865207a65726f206164647265737300600082015250565b620007d38162000634565b8114620007df57600080fd5b50565b620007ed816200063e565b8114620007f957600080fd5b50565b611e91806200080c6000396000f3fe608060405234801561001057600080fd5b506004361061012c5760003560e01c806395d89b41116100ad578063bc3117b811610071578063bc3117b814610337578063cf8eeb7e14610367578063dd62ed3e14610383578063e1f21c67146103b3578063f2fde38b146103e35761012c565b806395d89b41146102595780639768a31d146102775780639dc29fac146102a7578063a0712d68146102d7578063b673b195146103075761012c565b8063313ce567116100f4578063313ce567146101c55780633d375f69146101e357806370a0823114610201578063715018a6146102315780638da5cb5b1461023b5761012c565b806306fdde03146101315780630ff018111461014f57806318160ddd1461016d57806321e5383a1461018b578063274173c3146101a7575b600080fd5b6101396103ff565b604051610146919061188c565b60405180910390f35b610157610491565b60405161016491906119e9565b60405180910390f35b6101756104a8565b60405161018291906119ce565b60405180910390f35b6101a560048036038101906101a09190611639565b6104b2565b005b6101af6105db565b6040516101bc91906119ce565b60405180910390f35b6101cd6105e5565b6040516101da91906119e9565b60405180910390f35b6101eb6105fc565b6040516101f89190611856565b60405180910390f35b61021b60048036038101906102169190611579565b610626565b60405161022891906119ce565b60405180910390f35b61023961066f565b005b6102436106f7565b6040516102509190611856565b60405180910390f35b610261610720565b60405161026e919061188c565b60405180910390f35b610291600480360381019061028c9190611579565b6107b2565b60405161029e9190611871565b60405180910390f35b6102c160048036038101906102bc9190611639565b610808565b6040516102ce9190611871565b60405180910390f35b6102f160048036038101906102ec9190611679565b6108e8565b6040516102fe9190611871565b60405180910390f35b610321600480360381019061031c9190611579565b610a27565b60405161032e9190611871565b60405180910390f35b610351600480360381019061034c9190611579565b610afa565b60405161035e9190611871565b60405180910390f35b610381600480360381019061037c9190611639565b610c05565b005b61039d600480360381019061039891906115a6565b610d2e565b6040516103aa91906119ce565b60405180910390f35b6103cd60048036038101906103c891906115e6565b610db5565b6040516103da9190611871565b60405180910390f35b6103fd60048036038101906103f89190611579565b611018565b005b60606005805461040e90611b32565b80601f016020809104026020016040519081016040528092919081815260200182805461043a90611b32565b80156104875780601f1061045c57610100808354040283529160200191610487565b820191906000526020600020905b81548152906001019060200180831161046a57829003601f168201915b5050505050905090565b6000600460009054906101000a900460ff16905090565b6000600154905090565b600760009054906101000a900473ffffffffffffffffffffffffffffffffffffffff1673ffffffffffffffffffffffffffffffffffffffff163373ffffffffffffffffffffffffffffffffffffffff1614610542576040517f08c379a00000000000000000000000000000000000000000000000000000000081526004016105399061190e565b60405180910390fd5b61059481600860008573ffffffffffffffffffffffffffffffffffffffff1673ffffffffffffffffffffffffffffffffffffffff1681526020019081526020016000205461111090919063ffffffff16565b600860008473ffffffffffffffffffffffffffffffffffffffff1673ffffffffffffffffffffffffffffffffffffffff168152602001908152602001600020819055505050565b6000600254905090565b6000600460009054906101000a900460ff16905090565b6000600760009054906101000a900473ffffffffffffffffffffffffffffffffffffffff16905090565b6000600860008373ffffffffffffffffffffffffffffffffffffffff1673ffffffffffffffffffffffffffffffffffffffff168152602001908152602001600020549050919050565b610677611126565b73ffffffffffffffffffffffffffffffffffffffff166106956106f7565b73ffffffffffffffffffffffffffffffffffffffff16146106eb576040517f08c379a00000000000000000000000000000000000000000000000000000000081526004016106e29061192e565b60405180910390fd5b6106f5600061112e565b565b60008060009054906101000a900473ffffffffffffffffffffffffffffffffffffffff16905090565b60606006805461072f90611b32565b80601f016020809104026020016040519081016040528092919081815260200182805461075b90611b32565b80156107a85780601f1061077d576101008083540402835291602001916107a8565b820191906000526020600020905b81548152906001019060200180831161078b57829003601f168201915b5050505050905090565b6000600a60008373ffffffffffffffffffffffffffffffffffffffff1673ffffffffffffffffffffffffffffffffffffffff16815260200190815260200160002060009054906101000a900460ff169050919050565b6000610812611126565b73ffffffffffffffffffffffffffffffffffffffff166108306106f7565b73ffffffffffffffffffffffffffffffffffffffff1614610886576040517f08c379a000000000000000000000000000000000000000000000000000000000815260040161087d9061192e565b60405180910390fd5b8273ffffffffffffffffffffffffffffffffffffffff167fcc16f5dbb4873280815c1ee09dbd06736cffcc184412cf7a71a0fdb75d397ca5836040516108cc91906119ce565b60405180910390a26108de83836111f2565b6001905092915050565b60006108f2611126565b73ffffffffffffffffffffffffffffffffffffffff166109106106f7565b73ffffffffffffffffffffffffffffffffffffffff1614610966576040517f08c379a000000000000000000000000000000000000000000000000000000000815260040161095d9061192e565b60405180910390fd5b6201518061097f6003544261139890919063ffffffff16565b10156109c0576040517f08c379a00000000000000000000000000000000000000000000000000000000081526004016109b79061196e565b60405180910390fd5b6109c8611126565b73ffffffffffffffffffffffffffffffffffffffff167f0f6798a560793a54c3bcfe86a93cde1e73087d944c0ea20544137d412139688583604051610a0d91906119ce565b60405180910390a2610a1e826113ae565b60019050919050565b6000610a31611126565b73ffffffffffffffffffffffffffffffffffffffff16610a4f6106f7565b73ffffffffffffffffffffffffffffffffffffffff1614610aa5576040517f08c379a0000000000000000000000000000000000000000000000000000000008152600401610a9c9061192e565b60405180910390fd5b8173ffffffffffffffffffffffffffffffffffffffff167f3b3eb1c1f5a6918f3105e9373dac9b548b78f966a094028cd81864f6dd4a45a360405160405180910390a2610af1826114f4565b60019050919050565b6000610b04611126565b73ffffffffffffffffffffffffffffffffffffffff16610b226106f7565b73ffffffffffffffffffffffffffffffffffffffff1614610b78576040517f08c379a0000000000000000000000000000000000000000000000000000000008152600401610b6f9061192e565b60405180910390fd5b8173ffffffffffffffffffffffffffffffffffffffff167f4266e6fbb8959f13370d6c9c3fc92469a89560a3c5de4e6e9128ee5d6dd215ab60405160405180910390a281600760006101000a81548173ffffffffffffffffffffffffffffffffffffffff021916908373ffffffffffffffffffffffffffffffffffffffff16021790555060019050919050565b600760009054906101000a900473ffffffffffffffffffffffffffffffffffffffff1673ffffffffffffffffffffffffffffffffffffffff163373ffffffffffffffffffffffffffffffffffffffff1614610c95576040517f08c379a0000000000000000000000000000000000000000000000000000000008152600401610c8c9061190e565b60405180910390fd5b610ce781600860008573ffffffffffffffffffffffffffffffffffffffff1673ffffffffffffffffffffffffffffffffffffffff1681526020019081526020016000205461139890919063ffffffff16565b600860008473ffffffffffffffffffffffffffffffffffffffff1673ffffffffffffffffffffffffffffffffffffffff168152602001908152602001600020819055505050565b6000600960008473ffffffffffffffffffffffffffffffffffffffff1673ffffffffffffffffffffffffffffffffffffffff16815260200190815260200160002060008373ffffffffffffffffffffffffffffffffffffffff1673ffffffffffffffffffffffffffffffffffffffff16815260200190815260200160002054905092915050565b6000600760009054906101000a900473ffffffffffffffffffffffffffffffffffffffff1673ffffffffffffffffffffffffffffffffffffffff163373ffffffffffffffffffffffffffffffffffffffff1614610e47576040517f08c379a0000000000000000000000000000000000000000000000000000000008152600401610e3e9061190e565b60405180910390fd5b600073ffffffffffffffffffffffffffffffffffffffff168473ffffffffffffffffffffffffffffffffffffffff161415610eb7576040517f08c379a0000000000000000000000000000000000000000000000000000000008152600401610eae9061194e565b60405180910390fd5b600073ffffffffffffffffffffffffffffffffffffffff168373ffffffffffffffffffffffffffffffffffffffff161415610f27576040517f08c379a0000000000000000000000000000000000000000000000000000000008152600401610f1e906118ce565b60405180910390fd5b8273ffffffffffffffffffffffffffffffffffffffff168473ffffffffffffffffffffffffffffffffffffffff167f8c5be1e5ebec7d5bd14f71427d1e84f3dd0314c0f7b2291e5b200ac8c7c3b92584604051610f8491906119ce565b60405180910390a381600960008673ffffffffffffffffffffffffffffffffffffffff1673ffffffffffffffffffffffffffffffffffffffff16815260200190815260200160002060008573ffffffffffffffffffffffffffffffffffffffff1673ffffffffffffffffffffffffffffffffffffffff16815260200190815260200160002081905550600190509392505050565b611020611126565b73ffffffffffffffffffffffffffffffffffffffff1661103e6106f7565b73ffffffffffffffffffffffffffffffffffffffff1614611094576040517f08c379a000000000000000000000000000000000000000000000000000000000815260040161108b9061192e565b60405180910390fd5b600073ffffffffffffffffffffffffffffffffffffffff168173ffffffffffffffffffffffffffffffffffffffff161415611104576040517f08c379a00000000000000000000000000000000000000000000000000000000081526004016110fb906118ae565b60405180910390fd5b61110d8161112e565b50565b6000818361111e9190611a20565b905092915050565b600033905090565b60008060009054906101000a900473ffffffffffffffffffffffffffffffffffffffff169050816000806101000a81548173ffffffffffffffffffffffffffffffffffffffff021916908373ffffffffffffffffffffffffffffffffffffffff1602179055508173ffffffffffffffffffffffffffffffffffffffff168173ffffffffffffffffffffffffffffffffffffffff167f8be0079c531659141344cd1fd0a4f28419497f9722a3daafe3b4186f6b6457e060405160405180910390a35050565b600073ffffffffffffffffffffffffffffffffffffffff168273ffffffffffffffffffffffffffffffffffffffff161415611262576040517f08c379a0000000000000000000000000000000000000000000000000000000008152600401611259906118ee565b60405180910390fd5b80600860008473ffffffffffffffffffffffffffffffffffffffff1673ffffffffffffffffffffffffffffffffffffffff1681526020019081526020016000205410156112e4576040517f08c379a00000000000000000000000000000000000000000000000000000000081526004016112db906119ae565b60405180910390fd5b61133681600860008573ffffffffffffffffffffffffffffffffffffffff1673ffffffffffffffffffffffffffffffffffffffff1681526020019081526020016000205461139890919063ffffffff16565b600860008473ffffffffffffffffffffffffffffffffffffffff1673ffffffffffffffffffffffffffffffffffffffff1681526020019081526020016000208190555061138e8160015461139890919063ffffffff16565b6001819055505050565b600081836113a69190611a76565b905092915050565b600073ffffffffffffffffffffffffffffffffffffffff166113ce611126565b73ffffffffffffffffffffffffffffffffffffffff161415611425576040517f08c379a000000000000000000000000000000000000000000000000000000000815260040161141c9061198e565b60405180910390fd5b42600381905550806002819055506114488160015461111090919063ffffffff16565b6001819055506114a7816008600061145e611126565b73ffffffffffffffffffffffffffffffffffffffff1673ffffffffffffffffffffffffffffffffffffffff1681526020019081526020016000205461111090919063ffffffff16565b600860006114b3611126565b73ffffffffffffffffffffffffffffffffffffffff1673ffffffffffffffffffffffffffffffffffffffff1681526020019081526020016000208190555050565b6001600a60008373ffffffffffffffffffffffffffffffffffffffff1673ffffffffffffffffffffffffffffffffffffffff16815260200190815260200160002060006101000a81548160ff02191690831515021790555050565b60008135905061155e81611e2d565b92915050565b60008135905061157381611e44565b92915050565b60006020828403121561158f5761158e611bc2565b5b600061159d8482850161154f565b91505092915050565b600080604083850312156115bd576115bc611bc2565b5b60006115cb8582860161154f565b92505060206115dc8582860161154f565b9150509250929050565b6000806000606084860312156115ff576115fe611bc2565b5b600061160d8682870161154f565b935050602061161e8682870161154f565b925050604061162f86828701611564565b9150509250925092565b600080604083850312156116505761164f611bc2565b5b600061165e8582860161154f565b925050602061166f85828601611564565b9150509250929050565b60006020828403121561168f5761168e611bc2565b5b600061169d84828501611564565b91505092915050565b6116af81611aaa565b82525050565b6116be81611abc565b82525050565b60006116cf82611a04565b6116d98185611a0f565b93506116e9818560208601611aff565b6116f281611bc7565b840191505092915050565b600061170a602683611a0f565b915061171582611bd8565b604082019050919050565b600061172d602283611a0f565b915061173882611c27565b604082019050919050565b6000611750601f83611a0f565b915061175b82611c76565b602082019050919050565b6000611773602783611a0f565b915061177e82611c9f565b604082019050919050565b6000611796602083611a0f565b91506117a182611cee565b602082019050919050565b60006117b9602483611a0f565b91506117c482611d17565b604082019050919050565b60006117dc602d83611a0f565b91506117e782611d66565b604082019050919050565b60006117ff601f83611a0f565b915061180a82611db5565b602082019050919050565b6000611822602183611a0f565b915061182d82611dde565b604082019050919050565b61184181611ae8565b82525050565b61185081611af2565b82525050565b600060208201905061186b60008301846116a6565b92915050565b600060208201905061188660008301846116b5565b92915050565b600060208201905081810360008301526118a681846116c4565b905092915050565b600060208201905081810360008301526118c7816116fd565b9050919050565b600060208201905081810360008301526118e781611720565b9050919050565b6000602082019050818103600083015261190781611743565b9050919050565b6000602082019050818103600083015261192781611766565b9050919050565b6000602082019050818103600083015261194781611789565b9050919050565b60006020820190508181036000830152611967816117ac565b9050919050565b60006020820190508181036000830152611987816117cf565b9050919050565b600060208201905081810360008301526119a7816117f2565b9050919050565b600060208201905081810360008301526119c781611815565b9050919050565b60006020820190506119e36000830184611838565b92915050565b60006020820190506119fe6000830184611847565b92915050565b600081519050919050565b600082825260208201905092915050565b6000611a2b82611ae8565b9150611a3683611ae8565b9250827fffffffffffffffffffffffffffffffffffffffffffffffffffffffffffffffff03821115611a6b57611a6a611b64565b5b828201905092915050565b6000611a8182611ae8565b9150611a8c83611ae8565b925082821015611a9f57611a9e611b64565b5b828203905092915050565b6000611ab582611ac8565b9050919050565b60008115159050919050565b600073ffffffffffffffffffffffffffffffffffffffff82169050919050565b6000819050919050565b600060ff82169050919050565b60005b83811015611b1d578082015181840152602081019050611b02565b83811115611b2c576000848401525b50505050565b60006002820490506001821680611b4a57607f821691505b60208210811415611b5e57611b5d611b93565b5b50919050565b7f4e487b7100000000000000000000000000000000000000000000000000000000600052601160045260246000fd5b7f4e487b7100000000000000000000000000000000000000000000000000000000600052602260045260246000fd5b600080fd5b6000601f19601f8301169050919050565b7f4f776e61626c653a206e6577206f776e657220697320746865207a65726f206160008201527f6464726573730000000000000000000000000000000000000000000000000000602082015250565b7f45524332303a20617070726f766520746f20746865207a65726f20616464726560008201527f7373000000000000000000000000000000000000000000000000000000000000602082015250565b7f45524332303a206275726e20746f20746865207a65726f206164647265737300600082015250565b7f5468652073656e646572206973206e6f742061205a65757320696d706c656d6560008201527f6e746174696f6e00000000000000000000000000000000000000000000000000602082015250565b7f4f776e61626c653a2063616c6c6572206973206e6f7420746865206f776e6572600082015250565b7f45524332303a20617070726f76652066726f6d20746865207a65726f2061646460008201527f7265737300000000000000000000000000000000000000000000000000000000602082015250565b7f546869732066756e6374696f6e2063616e2062652063616c6c6564206f6e6c7960008201527f206f6e6365207065722064617900000000000000000000000000000000000000602082015250565b7f45524332303a206d696e7420746f20746865207a65726f206164647265737300600082015250565b7f45524332303a206275726e20616d756e7420657863656564732062616c616e6360008201527f6500000000000000000000000000000000000000000000000000000000000000602082015250565b611e3681611aaa565b8114611e4157600080fd5b50565b611e4d81611ae8565b8114611e5857600080fd5b5056fea2646970667358221220a5380d71e7cabed572839df796640e9337a862eca4287e3dbb97b910c45e819a64736f6c63430008070033",
  "immutableReferences": {},
  "source": "// SPDX-License-Identifier: MIT\npragma solidity ^0.8.0;\n\nimport \"@openzeppelin/contracts/utils/math/SafeMath.sol\";\nimport \"@openzeppelin/contracts/access/Ownable.sol\";\nimport \"@openzeppelin/contracts/utils/Strings.sol\";\n\ncontract BoltTokenProxy is Ownable {\n    using SafeMath for uint256;\n\n    // ## EVENTS ##\n    event Mint(address indexed _account, uint256 _amount);\n    event Burn(address indexed _account, uint256 _amount);\n    event Approval(address indexed _owner, address indexed _spender, uint256 _value);\n    event SetAddressOfImplementation(address indexed _implementationAddress);\n    event AddPerpetualAddress(address indexed _newAddress);\n\n    // ## GLOBAL VARIABLES ##\n    uint256 private currentSupply;\n    uint256 private totalMintedToday;\n    uint256 private lastTimestamp;\n    uint8 private numberOfDecimals;\n    string private nameOfToken;\n    string private symbolOfToken;\n    address private implementationAddress;\n\n    mapping(address => uint256) private balances;\n    mapping(address => mapping(address => uint256)) private allowances;\n\n    mapping(address => bool) private isPerpetualAddress;\n\n    // ## MODIFIERS ##\n    modifier onlyImplementation() {\n        require(msg.sender == implementationAddress, \"The sender is not a Zeus implementation\");\n        _;\n    }\n\n    modifier oneTimeADay() {\n        require(\n            block.timestamp.sub(lastTimestamp) >= 1 days,\n            \"This function can be called only once per day\"\n        );\n        _;\n    }\n\n    // ## CONSTRUCTOR ##\n    constructor(\n        uint256 _initialSupply,\n        string memory _name,\n        string memory _symbol,\n        uint8 _numberOfDecimals\n    ) {\n        _mint(_initialSupply);\n        nameOfToken = _name;\n        symbolOfToken = _symbol;\n        numberOfDecimals = _numberOfDecimals;\n    }\n\n    // ## PUBLIC FUNCTIONS ##\n    // # GET #\n    function name() public view returns (string memory) {\n        return nameOfToken;\n    }\n\n    function symbol() public view returns (string memory) {\n        return symbolOfToken;\n    }\n\n    function decimals() public view returns (uint8) {\n        return numberOfDecimals;\n    }\n\n    function getMintedToday() public view returns (uint256) {\n        return totalMintedToday;\n    }\n\n    function totalSupply() public view returns (uint256) {\n        return currentSupply;\n    }\n\n    function getNumberOfDecimals() public view returns (uint8) {\n        return numberOfDecimals;\n    }\n\n    function getAddressOfImplementation() public view returns (address) {\n        return implementationAddress;\n    }\n\n    function balanceOf(address _user) public view returns (uint256) {\n        return balances[_user];\n    }\n\n    function isTheAddressAPerpetual(address _address)\n        public\n        view\n        returns (bool)\n    {\n        return isPerpetualAddress[_address];\n    }\n\n    function allowance(address _owner, address _spender)\n        public\n        view\n        returns (uint256)\n    {\n        return allowances[_owner][_spender];\n    }\n\n    // ## PUBLIC FUNCTIONS (ONLY IMPLEMENTATION) ##\n    //ADD FUNDS\n    function addBalance(address _to, uint256 _value) public onlyImplementation() {\n        balances[_to] = balances[_to].add(_value);\n    }\n\n    //SUBTRACT FUNDS\n    function subBalance(address _from, uint256 _value)\n        public\n        onlyImplementation()\n    {\n        balances[_from] = balances[_from].sub(_value);\n    }\n\n    //_APPROVE\n    function approve(\n        address _owner,\n        address _spender,\n        uint256 _amount\n    ) public onlyImplementation() returns(bool) {\n        require(_owner != address(0), \"ERC20: approve from the zero address\");\n        require(_spender != address(0), \"ERC20: approve to the zero address\");\n\n        emit Approval(_owner, _spender, _amount);\n        \n        allowances[_owner][_spender] = _amount;\n        return true;\n    }\n\n    // ## PUBLIC FUNCTIONS (ONLY OWNER) ##\n    //ADD PERPETUAL ADDRESS\n    function addPerpetualAddress(address _newAddress) public onlyOwner() returns(bool) {\n        emit AddPerpetualAddress(_newAddress);\n        \n        _addPerpetualAddress(_newAddress);\n        return true;\n    }\n\n    //BURN\n    function burn(address _account, uint256 _amount) public onlyOwner() returns(bool) {\n        emit Burn(_account, _amount);\n        \n        _burn(_account, _amount);\n        return true;\n    }\n\n    //MINT (ONE TIME A DAY)\n    function mint(uint256 _amount) public onlyOwner() oneTimeADay() returns(bool) {\n        emit Mint(_msgSender(), _amount);\n        \n        _mint(_amount);\n        return true;\n    }\n\n    // # SET #\n    function setAddressOfImplementation(address _implementationAddress)\n        public\n        onlyOwner()\n        returns(bool)\n    {   \n        emit SetAddressOfImplementation(_implementationAddress);\n        \n        implementationAddress = _implementationAddress;\n        return true;\n    }\n\n    // ## PRIVATE ##\n    //_ADD PERPETUAL ADDRESS\n    function _addPerpetualAddress(address _newAddress) private {\n        isPerpetualAddress[_newAddress] = true;\n    }\n\n    //_BURN\n    function _burn(address _account, uint256 _amount) private {\n        require(_account != address(0), \"ERC20: burn to the zero address\");\n        require(balances[_account] >= _amount, \"ERC20: burn amunt exceeds balance\");\n        unchecked {\n            balances[_account] = balances[_account].sub(_amount);\n        }\n        currentSupply = currentSupply.sub(_amount);\n    }\n\n    //_MINT\n    function _mint(uint256 _amount) private {\n        require(_msgSender() != address(0), \"ERC20: mint to the zero address\");\n        lastTimestamp = block.timestamp;\n        totalMintedToday = _amount;\n        currentSupply = currentSupply.add(_amount);\n        balances[_msgSender()] = balances[_msgSender()].add(_amount);\n    }\n}",
  "sourcePath": "/Users/nick/Documents/work/StormContract/contracts/BoltTokenProxy.sol",
  "compiler": {
    "name": "solc",
    "version": "0.8.7+commit.e28d00a7.Emscripten.clang"
  },
  "schemaVersion": "3.4.2",
  "updatedAt": "2021-09-02T13:49:00.100Z",
  "devdoc": {
    "kind": "dev",
    "methods": {
      "owner()": {
        "details": "Returns the address of the current owner."
      },
      "renounceOwnership()": {
        "details": "Leaves the contract without owner. It will not be possible to call `onlyOwner` functions anymore. Can only be called by the current owner. NOTE: Renouncing ownership will leave the contract without an owner, thereby removing any functionality that is only available to the owner."
      },
      "transferOwnership(address)": {
        "details": "Transfers ownership of the contract to a new account (`newOwner`). Can only be called by the current owner."
      }
    },
    "version": 1
  },
  "userdoc": {
    "kind": "user",
    "methods": {},
    "version": 1
  }
}