{
  "contractName": "BoltTokenProxy",
  "abi": [
    {
      "inputs": [
        {
          "internalType": "uint256",
          "name": "_initialSupply",
          "type": "uint256"
        },
        {
          "internalType": "uint256",
          "name": "_currenSupply",
          "type": "uint256"
        },
        {
          "internalType": "string",
          "name": "_name",
          "type": "string"
        },
        {
          "internalType": "string",
          "name": "_symbol",
          "type": "string"
        },
        {
          "internalType": "uint8",
          "name": "_numberOfDecimals",
          "type": "uint8"
        }
      ],
      "stateMutability": "nonpayable",
      "type": "constructor"
    },
    {
      "inputs": [
        {
          "internalType": "address",
          "name": "_from",
          "type": "address"
        },
        {
          "internalType": "uint256",
          "name": "_value",
          "type": "uint256"
        }
      ],
      "name": "subtractFunds",
      "outputs": [],
      "stateMutability": "nonpayable",
      "type": "function"
    },
    {
      "inputs": [
        {
          "internalType": "address",
          "name": "_to",
          "type": "address"
        },
        {
          "internalType": "uint256",
          "name": "_value",
          "type": "uint256"
        }
      ],
      "name": "addFunds",
      "outputs": [],
      "stateMutability": "nonpayable",
      "type": "function"
    },
    {
      "inputs": [],
      "name": "getAddressOfImplementation",
      "outputs": [
        {
          "internalType": "address",
          "name": "",
          "type": "address"
        }
      ],
      "stateMutability": "view",
      "type": "function",
      "constant": true
    },
    {
      "inputs": [
        {
          "internalType": "address",
          "name": "_implementationAddress",
          "type": "address"
        }
      ],
      "name": "setAddressOfImplementation",
      "outputs": [],
      "stateMutability": "nonpayable",
      "type": "function"
    },
    {
      "inputs": [],
      "name": "totalSupply",
      "outputs": [
        {
          "internalType": "uint256",
          "name": "",
          "type": "uint256"
        }
      ],
      "stateMutability": "view",
      "type": "function",
      "constant": true
    },
    {
      "inputs": [],
      "name": "getInitialSupply",
      "outputs": [
        {
          "internalType": "uint256",
          "name": "",
          "type": "uint256"
        }
      ],
      "stateMutability": "view",
      "type": "function",
      "constant": true
    },
    {
      "inputs": [],
      "name": "getOwner",
      "outputs": [
        {
          "internalType": "address",
          "name": "",
          "type": "address"
        }
      ],
      "stateMutability": "view",
      "type": "function",
      "constant": true
    },
    {
      "inputs": [],
      "name": "name",
      "outputs": [
        {
          "internalType": "string",
          "name": "",
          "type": "string"
        }
      ],
      "stateMutability": "view",
      "type": "function",
      "constant": true
    },
    {
      "inputs": [],
      "name": "symbol",
      "outputs": [
        {
          "internalType": "string",
          "name": "",
          "type": "string"
        }
      ],
      "stateMutability": "view",
      "type": "function",
      "constant": true
    },
    {
      "inputs": [],
      "name": "decimals",
      "outputs": [
        {
          "internalType": "uint8",
          "name": "",
          "type": "uint8"
        }
      ],
      "stateMutability": "view",
      "type": "function",
      "constant": true
    },
    {
      "inputs": [
        {
          "internalType": "address",
          "name": "_user",
          "type": "address"
        }
      ],
      "name": "balanceOf",
      "outputs": [
        {
          "internalType": "uint256",
          "name": "",
          "type": "uint256"
        }
      ],
      "stateMutability": "view",
      "type": "function",
      "constant": true
    },
    {
      "inputs": [],
      "name": "getNumberOfDecimals",
      "outputs": [
        {
          "internalType": "uint8",
          "name": "",
          "type": "uint8"
        }
      ],
      "stateMutability": "view",
      "type": "function",
      "constant": true
    },
    {
      "inputs": [
        {
          "internalType": "address",
          "name": "_owner",
          "type": "address"
        },
        {
          "internalType": "address",
          "name": "_spender",
          "type": "address"
        }
      ],
      "name": "allowance",
      "outputs": [
        {
          "internalType": "uint256",
          "name": "",
          "type": "uint256"
        }
      ],
      "stateMutability": "view",
      "type": "function",
      "constant": true
    },
    {
      "inputs": [
        {
          "internalType": "address",
          "name": "_owner",
          "type": "address"
        },
        {
          "internalType": "address",
          "name": "_spender",
          "type": "address"
        },
        {
          "internalType": "uint256",
          "name": "_amount",
          "type": "uint256"
        }
      ],
      "name": "_approve",
      "outputs": [],
      "stateMutability": "nonpayable",
      "type": "function"
    }
  ],
  "bytecode": "0x60806040523480156200001157600080fd5b50604051620013493803806200134983398181016040528101906200003791906200023a565b846000819055508360018190555033600260006101000a81548173ffffffffffffffffffffffffffffffffffffffff021916908373ffffffffffffffffffffffffffffffffffffffff16021790555082600390805190602001906200009e929190620000de565b508160049080519060200190620000b7929190620000de565b5080600260146101000a81548160ff021916908360ff1602179055505050505050620004cf565b828054620000ec90620003ac565b90600052602060002090601f0160209004810192826200011057600085556200015c565b82601f106200012b57805160ff19168380011785556200015c565b828001600101855582156200015c579182015b828111156200015b5782518255916020019190600101906200013e565b5b5090506200016b91906200016f565b5090565b5b808211156200018a57600081600090555060010162000170565b5090565b6000620001a56200019f8462000329565b62000300565b905082815260208101848484011115620001c457620001c36200047b565b5b620001d184828562000376565b509392505050565b600082601f830112620001f157620001f062000476565b5b8151620002038482602086016200018e565b91505092915050565b6000815190506200021d816200049b565b92915050565b6000815190506200023481620004b5565b92915050565b600080600080600060a0868803121562000259576200025862000485565b5b600062000269888289016200020c565b95505060206200027c888289016200020c565b945050604086015167ffffffffffffffff811115620002a0576200029f62000480565b5b620002ae88828901620001d9565b935050606086015167ffffffffffffffff811115620002d257620002d162000480565b5b620002e088828901620001d9565b9250506080620002f38882890162000223565b9150509295509295909350565b60006200030c6200031f565b90506200031a8282620003e2565b919050565b6000604051905090565b600067ffffffffffffffff82111562000347576200034662000447565b5b62000352826200048a565b9050602081019050919050565b6000819050919050565b600060ff82169050919050565b60005b838110156200039657808201518184015260208101905062000379565b83811115620003a6576000848401525b50505050565b60006002820490506001821680620003c557607f821691505b60208210811415620003dc57620003db62000418565b5b50919050565b620003ed826200048a565b810181811067ffffffffffffffff821117156200040f576200040e62000447565b5b80604052505050565b7f4e487b7100000000000000000000000000000000000000000000000000000000600052602260045260246000fd5b7f4e487b7100000000000000000000000000000000000000000000000000000000600052604160045260246000fd5b600080fd5b600080fd5b600080fd5b600080fd5b6000601f19601f8301169050919050565b620004a6816200035f565b8114620004b257600080fd5b50565b620004c08162000369565b8114620004cc57600080fd5b50565b610e6a80620004df6000396000f3fe608060405234801561001057600080fd5b50600436106100ea5760003560e01c806370a082311161008c57806395d89b411161006657806395d89b4114610229578063bc3117b814610247578063bc4b336514610263578063dd62ed3e1461027f576100ea565b806370a08231146101bd57806381a4a6d8146101ed578063893d20e81461020b576100ea565b8063104e81ff116100c8578063104e81ff1461014757806318160ddd14610163578063313ce567146101815780633d375f691461019f576100ea565b806306fdde03146100ef5780630c61411f1461010d5780630ff0181114610129575b600080fd5b6100f76102af565b6040516101049190610b51565b60405180910390f35b61012760048036038101906101229190610a6d565b610341565b005b61013161043b565b60405161013e9190610bae565b60405180910390f35b610161600480360381019061015c9190610a1a565b610452565b005b61016b610539565b6040516101789190610b93565b60405180910390f35b610189610543565b6040516101969190610bae565b60405180910390f35b6101a761055a565b6040516101b49190610b36565b60405180910390f35b6101d760048036038101906101d291906109ad565b610584565b6040516101e49190610b93565b60405180910390f35b6101f56105cd565b6040516102029190610b93565b60405180910390f35b6102136105d6565b6040516102209190610b36565b60405180910390f35b610231610600565b60405161023e9190610b51565b60405180910390f35b610261600480360381019061025c91906109ad565b610692565b005b61027d60048036038101906102789190610a6d565b6107ce565b005b610299600480360381019061029491906109da565b6108c8565b6040516102a69190610b93565b60405180910390f35b6060600380546102be90610ceb565b80601f01602080910402602001604051908101604052809291908181526020018280546102ea90610ceb565b80156103375780601f1061030c57610100808354040283529160200191610337565b820191906000526020600020905b81548152906001019060200180831161031a57829003601f168201915b5050505050905090565b600560009054906101000a900473ffffffffffffffffffffffffffffffffffffffff1673ffffffffffffffffffffffffffffffffffffffff1661038261094f565b73ffffffffffffffffffffffffffffffffffffffff16146103a257600080fd5b6103f481600660008573ffffffffffffffffffffffffffffffffffffffff1673ffffffffffffffffffffffffffffffffffffffff1681526020019081526020016000205461095790919063ffffffff16565b600660008473ffffffffffffffffffffffffffffffffffffffff1673ffffffffffffffffffffffffffffffffffffffff168152602001908152602001600020819055505050565b6000600260149054906101000a900460ff16905090565b600560009054906101000a900473ffffffffffffffffffffffffffffffffffffffff1673ffffffffffffffffffffffffffffffffffffffff1661049361094f565b73ffffffffffffffffffffffffffffffffffffffff16146104b357600080fd5b80600760008573ffffffffffffffffffffffffffffffffffffffff1673ffffffffffffffffffffffffffffffffffffffff16815260200190815260200160002060008473ffffffffffffffffffffffffffffffffffffffff1673ffffffffffffffffffffffffffffffffffffffff16815260200190815260200160002081905550505050565b6000600154905090565b6000600260149054906101000a900460ff16905090565b6000600560009054906101000a900473ffffffffffffffffffffffffffffffffffffffff16905090565b6000600660008373ffffffffffffffffffffffffffffffffffffffff1673ffffffffffffffffffffffffffffffffffffffff168152602001908152602001600020549050919050565b60008054905090565b6000600260009054906101000a900473ffffffffffffffffffffffffffffffffffffffff16905090565b60606004805461060f90610ceb565b80601f016020809104026020016040519081016040528092919081815260200182805461063b90610ceb565b80156106885780601f1061065d57610100808354040283529160200191610688565b820191906000526020600020905b81548152906001019060200180831161066b57829003601f168201915b5050505050905090565b600560009054906101000a900473ffffffffffffffffffffffffffffffffffffffff1673ffffffffffffffffffffffffffffffffffffffff166106d361094f565b73ffffffffffffffffffffffffffffffffffffffff16146106f357600080fd5b600260009054906101000a900473ffffffffffffffffffffffffffffffffffffffff1673ffffffffffffffffffffffffffffffffffffffff1661073461094f565b73ffffffffffffffffffffffffffffffffffffffff161461078a576040517f08c379a000000000000000000000000000000000000000000000000000000000815260040161078190610b73565b60405180910390fd5b80600560006101000a81548173ffffffffffffffffffffffffffffffffffffffff021916908373ffffffffffffffffffffffffffffffffffffffff16021790555050565b600560009054906101000a900473ffffffffffffffffffffffffffffffffffffffff1673ffffffffffffffffffffffffffffffffffffffff1661080f61094f565b73ffffffffffffffffffffffffffffffffffffffff161461082f57600080fd5b61088181600660008573ffffffffffffffffffffffffffffffffffffffff1673ffffffffffffffffffffffffffffffffffffffff1681526020019081526020016000205461096d90919063ffffffff16565b600660008473ffffffffffffffffffffffffffffffffffffffff1673ffffffffffffffffffffffffffffffffffffffff168152602001908152602001600020819055505050565b6000600760008473ffffffffffffffffffffffffffffffffffffffff1673ffffffffffffffffffffffffffffffffffffffff16815260200190815260200160002060008373ffffffffffffffffffffffffffffffffffffffff1673ffffffffffffffffffffffffffffffffffffffff16815260200190815260200160002054905092915050565b600033905090565b600081836109659190610c3b565b905092915050565b6000818361097b9190610be5565b905092915050565b60008135905061099281610e06565b92915050565b6000813590506109a781610e1d565b92915050565b6000602082840312156109c3576109c2610d7b565b5b60006109d184828501610983565b91505092915050565b600080604083850312156109f1576109f0610d7b565b5b60006109ff85828601610983565b9250506020610a1085828601610983565b9150509250929050565b600080600060608486031215610a3357610a32610d7b565b5b6000610a4186828701610983565b9350506020610a5286828701610983565b9250506040610a6386828701610998565b9150509250925092565b60008060408385031215610a8457610a83610d7b565b5b6000610a9285828601610983565b9250506020610aa385828601610998565b9150509250929050565b610ab681610c6f565b82525050565b6000610ac782610bc9565b610ad18185610bd4565b9350610ae1818560208601610cb8565b610aea81610d80565b840191505092915050565b6000610b02604883610bd4565b9150610b0d82610d91565b606082019050919050565b610b2181610ca1565b82525050565b610b3081610cab565b82525050565b6000602082019050610b4b6000830184610aad565b92915050565b60006020820190508181036000830152610b6b8184610abc565b905092915050565b60006020820190508181036000830152610b8c81610af5565b9050919050565b6000602082019050610ba86000830184610b18565b92915050565b6000602082019050610bc36000830184610b27565b92915050565b600081519050919050565b600082825260208201905092915050565b6000610bf082610ca1565b9150610bfb83610ca1565b9250827fffffffffffffffffffffffffffffffffffffffffffffffffffffffffffffffff03821115610c3057610c2f610d1d565b5b828201905092915050565b6000610c4682610ca1565b9150610c5183610ca1565b925082821015610c6457610c63610d1d565b5b828203905092915050565b6000610c7a82610c81565b9050919050565b600073ffffffffffffffffffffffffffffffffffffffff82169050919050565b6000819050919050565b600060ff82169050919050565b60005b83811015610cd6578082015181840152602081019050610cbb565b83811115610ce5576000848401525b50505050565b60006002820490506001821680610d0357607f821691505b60208210811415610d1757610d16610d4c565b5b50919050565b7f4e487b7100000000000000000000000000000000000000000000000000000000600052601160045260246000fd5b7f4e487b7100000000000000000000000000000000000000000000000000000000600052602260045260246000fd5b600080fd5b6000601f19601f8301169050919050565b7f4f6e6c7920746865206f776e6572206f662074686520636f6e7472616374206360008201527f616e20736574207468652061646472657373206f662074686520696d706c656d60208201527f656e746174696f6e000000000000000000000000000000000000000000000000604082015250565b610e0f81610c6f565b8114610e1a57600080fd5b50565b610e2681610ca1565b8114610e3157600080fd5b5056fea26469706673582212205ab7de7af345822e483e9556b825775d71d19a5da20999590bf3ce620e3100be64736f6c63430008070033",
  "immutableReferences": {},
  "source": "// SPDX-License-Identifier: MIT\npragma solidity 0.8.7;\n\nimport \"@openzeppelin/contracts/utils/math/SafeMath.sol\";\nimport \"@openzeppelin/contracts/utils/Context.sol\";\nimport \"@openzeppelin/contracts/utils/Strings.sol\";\n\ncontract BoltTokenProxy is Context {\n    using SafeMath for uint256;\n    uint256 private initialSupply;\n    uint256 private currentSupply;\n    address private owner;\n    uint8 private numberOfDecimals;\n    string private nameOfToken;\n    string private symbolOfToken;\n    address private implementationAddress;\n\n    mapping(address => uint256) private balances;\n    mapping(address => mapping(address => uint256)) private allowances;\n    \n    constructor(uint256 _initialSupply, uint256 _currenSupply, string memory _name, string memory _symbol, uint8 _numberOfDecimals) {\n        initialSupply = _initialSupply;\n        currentSupply = _currenSupply;\n        owner = msg.sender;\n        nameOfToken = _name;\n        symbolOfToken = _symbol;\n        numberOfDecimals = _numberOfDecimals;\n    }\n\n    modifier onlyImplementation() {\n        require(_msgSender() == implementationAddress);\n        _;\n    }\n\n    function subtractFunds(address _from, uint256 _value) public onlyImplementation() {\n        balances[_from] = balances[_from].sub(_value);\n    }\n\n    function addFunds(address _to, uint256 _value) public onlyImplementation() {\n        balances[_to] = balances[_to].add(_value);\n    }\n\n    function getAddressOfImplementation() external view returns(address){\n        return implementationAddress;\n    }\n\n    function setAddressOfImplementation(address _implementationAddress) public onlyImplementation() {\n        require(_msgSender() == owner, \"Only the owner of the contract can set the address of the implementation\");\n        implementationAddress = _implementationAddress;\n    }\n\n    function totalSupply() external view returns(uint256) {\n        return currentSupply;\n    }\n\n    function getInitialSupply() external view returns(uint256) {\n        return initialSupply;\n    }\n\n    function getOwner() external view returns(address) {\n        return owner;\n    }\n\n    function name() external view returns(string memory) {\n        return nameOfToken;\n    }\n\n    function symbol() external view returns(string memory) {\n        return symbolOfToken;\n    }    \n\n    function decimals() external view returns(uint8) {\n        return numberOfDecimals;\n    }\n\n    function balanceOf(address _user) external view returns(uint256) {\n        return balances[_user];\n    }\n\n    function getNumberOfDecimals() external view returns(uint8) {\n        return numberOfDecimals;\n    }\n\n    function allowance(address _owner, address _spender) public view returns(uint256) {\n        return allowances[_owner][_spender];\n    }\n\n    function _approve(address _owner, address _spender, uint256 _amount) public onlyImplementation() {\n        allowances[_owner][_spender] = _amount;\n    }\n}",
  "sourcePath": "/Users/nick/Documents/work/StormContract/contracts/BoltTokenProxy.sol",
  "compiler": {
    "name": "solc",
    "version": "0.8.7+commit.e28d00a7.Emscripten.clang"
  },
  "schemaVersion": "3.4.2",
  "updatedAt": "2021-08-27T15:46:09.582Z",
  "networkType": "ethereum",
  "devdoc": {
    "kind": "dev",
    "methods": {},
    "version": 1
  },
  "userdoc": {
    "kind": "user",
    "methods": {},
    "version": 1
  }
}