{
  "contractName": "BoltTokenProxy",
  "abi": [
    {
      "inputs": [
        {
          "internalType": "uint256",
          "name": "_initialSupply",
          "type": "uint256"
        },
        {
          "internalType": "string",
          "name": "_name",
          "type": "string"
        },
        {
          "internalType": "string",
          "name": "_symbol",
          "type": "string"
        },
        {
          "internalType": "uint8",
          "name": "_numberOfDecimals",
          "type": "uint8"
        }
      ],
      "stateMutability": "nonpayable",
      "type": "constructor"
    },
    {
      "anonymous": false,
      "inputs": [
        {
          "indexed": true,
          "internalType": "address",
          "name": "_newAddress",
          "type": "address"
        }
      ],
      "name": "AddPerpetualAddress",
      "type": "event"
    },
    {
      "anonymous": false,
      "inputs": [
        {
          "indexed": true,
          "internalType": "address",
          "name": "_owner",
          "type": "address"
        },
        {
          "indexed": true,
          "internalType": "address",
          "name": "_spender",
          "type": "address"
        },
        {
          "indexed": false,
          "internalType": "uint256",
          "name": "_value",
          "type": "uint256"
        }
      ],
      "name": "Approval",
      "type": "event"
    },
    {
      "anonymous": false,
      "inputs": [
        {
          "indexed": true,
          "internalType": "address",
          "name": "_account",
          "type": "address"
        },
        {
          "indexed": false,
          "internalType": "uint256",
          "name": "_amount",
          "type": "uint256"
        }
      ],
      "name": "Burn",
      "type": "event"
    },
    {
      "anonymous": false,
      "inputs": [
        {
          "indexed": true,
          "internalType": "address",
          "name": "_account",
          "type": "address"
        },
        {
          "indexed": false,
          "internalType": "uint256",
          "name": "_amount",
          "type": "uint256"
        }
      ],
      "name": "Mint",
      "type": "event"
    },
    {
      "anonymous": false,
      "inputs": [
        {
          "indexed": true,
          "internalType": "address",
          "name": "_implementationAddress",
          "type": "address"
        }
      ],
      "name": "SetAddressOfImplementation",
      "type": "event"
    },
    {
      "inputs": [],
      "name": "name",
      "outputs": [
        {
          "internalType": "string",
          "name": "",
          "type": "string"
        }
      ],
      "stateMutability": "view",
      "type": "function",
      "constant": true
    },
    {
      "inputs": [],
      "name": "symbol",
      "outputs": [
        {
          "internalType": "string",
          "name": "",
          "type": "string"
        }
      ],
      "stateMutability": "view",
      "type": "function",
      "constant": true
    },
    {
      "inputs": [],
      "name": "decimals",
      "outputs": [
        {
          "internalType": "uint8",
          "name": "",
          "type": "uint8"
        }
      ],
      "stateMutability": "view",
      "type": "function",
      "constant": true
    },
    {
      "inputs": [],
      "name": "getOwner",
      "outputs": [
        {
          "internalType": "address",
          "name": "",
          "type": "address"
        }
      ],
      "stateMutability": "view",
      "type": "function",
      "constant": true
    },
    {
      "inputs": [],
      "name": "getInitialSupply",
      "outputs": [
        {
          "internalType": "uint256",
          "name": "",
          "type": "uint256"
        }
      ],
      "stateMutability": "view",
      "type": "function",
      "constant": true
    },
    {
      "inputs": [],
      "name": "totalSupply",
      "outputs": [
        {
          "internalType": "uint256",
          "name": "",
          "type": "uint256"
        }
      ],
      "stateMutability": "view",
      "type": "function",
      "constant": true
    },
    {
      "inputs": [],
      "name": "getNumberOfDecimals",
      "outputs": [
        {
          "internalType": "uint8",
          "name": "",
          "type": "uint8"
        }
      ],
      "stateMutability": "view",
      "type": "function",
      "constant": true
    },
    {
      "inputs": [],
      "name": "getAddressOfImplementation",
      "outputs": [
        {
          "internalType": "address",
          "name": "",
          "type": "address"
        }
      ],
      "stateMutability": "view",
      "type": "function",
      "constant": true
    },
    {
      "inputs": [
        {
          "internalType": "address",
          "name": "_user",
          "type": "address"
        }
      ],
      "name": "balanceOf",
      "outputs": [
        {
          "internalType": "uint256",
          "name": "",
          "type": "uint256"
        }
      ],
      "stateMutability": "view",
      "type": "function",
      "constant": true
    },
    {
      "inputs": [
        {
          "internalType": "address",
          "name": "_address",
          "type": "address"
        }
      ],
      "name": "isTheAddressAPerpetual",
      "outputs": [
        {
          "internalType": "bool",
          "name": "",
          "type": "bool"
        }
      ],
      "stateMutability": "view",
      "type": "function",
      "constant": true
    },
    {
      "inputs": [
        {
          "internalType": "address",
          "name": "_owner",
          "type": "address"
        },
        {
          "internalType": "address",
          "name": "_spender",
          "type": "address"
        }
      ],
      "name": "allowance",
      "outputs": [
        {
          "internalType": "uint256",
          "name": "",
          "type": "uint256"
        }
      ],
      "stateMutability": "view",
      "type": "function",
      "constant": true
    },
    {
      "inputs": [
        {
          "internalType": "address",
          "name": "_to",
          "type": "address"
        },
        {
          "internalType": "uint256",
          "name": "_value",
          "type": "uint256"
        }
      ],
      "name": "addBalance",
      "outputs": [],
      "stateMutability": "nonpayable",
      "type": "function"
    },
    {
      "inputs": [
        {
          "internalType": "address",
          "name": "_from",
          "type": "address"
        },
        {
          "internalType": "uint256",
          "name": "_value",
          "type": "uint256"
        }
      ],
      "name": "subBalance",
      "outputs": [],
      "stateMutability": "nonpayable",
      "type": "function"
    },
    {
      "inputs": [
        {
          "internalType": "address",
          "name": "_owner",
          "type": "address"
        },
        {
          "internalType": "address",
          "name": "_spender",
          "type": "address"
        },
        {
          "internalType": "uint256",
          "name": "_amount",
          "type": "uint256"
        }
      ],
      "name": "_approve",
      "outputs": [],
      "stateMutability": "nonpayable",
      "type": "function"
    },
    {
      "inputs": [
        {
          "internalType": "address",
          "name": "_newAddress",
          "type": "address"
        }
      ],
      "name": "addPerpetualAddress",
      "outputs": [],
      "stateMutability": "nonpayable",
      "type": "function"
    },
    {
      "inputs": [
        {
          "internalType": "address",
          "name": "_account",
          "type": "address"
        },
        {
          "internalType": "uint256",
          "name": "_amount",
          "type": "uint256"
        }
      ],
      "name": "burn",
      "outputs": [],
      "stateMutability": "nonpayable",
      "type": "function"
    },
    {
      "inputs": [
        {
          "internalType": "uint256",
          "name": "_amount",
          "type": "uint256"
        }
      ],
      "name": "mint",
      "outputs": [],
      "stateMutability": "nonpayable",
      "type": "function"
    },
    {
      "inputs": [
        {
          "internalType": "address",
          "name": "_implementationAddress",
          "type": "address"
        }
      ],
      "name": "setAddressOfImplementation",
      "outputs": [],
      "stateMutability": "nonpayable",
      "type": "function"
    }
  ],
  "bytecode": "0x60806040523480156200001157600080fd5b50604051620022ee380380620022ee833981810160405281019062000037919062000423565b33600360006101000a81548173ffffffffffffffffffffffffffffffffffffffff021916908373ffffffffffffffffffffffffffffffffffffffff1602179055506200008984620000e060201b60201c565b8260049080519060200190620000a1929190620002c7565b508160059080519060200190620000ba929190620002c7565b5080600360146101000a81548160ff021916908360ff16021790555050505050620007df565b600073ffffffffffffffffffffffffffffffffffffffff1662000108620002a760201b60201c565b73ffffffffffffffffffffffffffffffffffffffff16141562000162576040517f08c379a000000000000000000000000000000000000000000000000000000000815260040162000159906200050b565b60405180910390fd5b806002819055506200018581600154620002af60201b62000e181790919060201c565b600181905550620001f38160086000620001a4620002a760201b60201c565b73ffffffffffffffffffffffffffffffffffffffff1673ffffffffffffffffffffffffffffffffffffffff16815260200190815260200160002054620002af60201b62000e181790919060201c565b6008600062000207620002a760201b60201c565b73ffffffffffffffffffffffffffffffffffffffff1673ffffffffffffffffffffffffffffffffffffffff1681526020019081526020016000208190555062000255620002a760201b60201c565b73ffffffffffffffffffffffffffffffffffffffff167f0f6798a560793a54c3bcfe86a93cde1e73087d944c0ea20544137d4121396885826040516200029c91906200052d565b60405180910390a250565b600033905090565b60008183620002bf9190620005ba565b905092915050565b828054620002d59062000664565b90600052602060002090601f016020900481019282620002f9576000855562000345565b82601f106200031457805160ff191683800117855562000345565b8280016001018555821562000345579182015b828111156200034457825182559160200191906001019062000327565b5b50905062000354919062000358565b5090565b5b808211156200037357600081600090555060010162000359565b5090565b60006200038e620003888462000573565b6200054a565b905082815260208101848484011115620003ad57620003ac62000762565b5b620003ba8482856200062e565b509392505050565b600082601f830112620003da57620003d96200075d565b5b8151620003ec84826020860162000377565b91505092915050565b6000815190506200040681620007ab565b92915050565b6000815190506200041d81620007c5565b92915050565b6000806000806080858703121562000440576200043f6200076c565b5b60006200045087828801620003f5565b945050602085015167ffffffffffffffff81111562000474576200047362000767565b5b6200048287828801620003c2565b935050604085015167ffffffffffffffff811115620004a657620004a562000767565b5b620004b487828801620003c2565b9250506060620004c7878288016200040c565b91505092959194509250565b6000620004e2601f83620005a9565b9150620004ef8262000782565b602082019050919050565b620005058162000617565b82525050565b600060208201905081810360008301526200052681620004d3565b9050919050565b6000602082019050620005446000830184620004fa565b92915050565b60006200055662000569565b90506200056482826200069a565b919050565b6000604051905090565b600067ffffffffffffffff8211156200059157620005906200072e565b5b6200059c8262000771565b9050602081019050919050565b600082825260208201905092915050565b6000620005c78262000617565b9150620005d48362000617565b9250827fffffffffffffffffffffffffffffffffffffffffffffffffffffffffffffffff038211156200060c576200060b620006d0565b5b828201905092915050565b6000819050919050565b600060ff82169050919050565b60005b838110156200064e57808201518184015260208101905062000631565b838111156200065e576000848401525b50505050565b600060028204905060018216806200067d57607f821691505b60208210811415620006945762000693620006ff565b5b50919050565b620006a58262000771565b810181811067ffffffffffffffff82111715620006c757620006c66200072e565b5b80604052505050565b7f4e487b7100000000000000000000000000000000000000000000000000000000600052601160045260246000fd5b7f4e487b7100000000000000000000000000000000000000000000000000000000600052602260045260246000fd5b7f4e487b7100000000000000000000000000000000000000000000000000000000600052604160045260246000fd5b600080fd5b600080fd5b600080fd5b600080fd5b6000601f19601f8301169050919050565b7f45524332303a206d696e7420746f20746865207a65726f206164647265737300600082015250565b620007b68162000617565b8114620007c257600080fd5b50565b620007d08162000621565b8114620007dc57600080fd5b50565b611aff80620007ef6000396000f3fe608060405234801561001057600080fd5b50600436106101165760003560e01c8063893d20e8116100a2578063a0712d6811610071578063a0712d68146102bf578063b673b195146102db578063bc3117b8146102f7578063cf8eeb7e14610313578063dd62ed3e1461032f57610116565b8063893d20e81461023757806395d89b41146102555780639768a31d146102735780639dc29fac146102a357610116565b806321e5383a116100e957806321e5383a14610191578063313ce567146101ad5780633d375f69146101cb57806370a08231146101e957806381a4a6d81461021957610116565b806306fdde031461011b5780630ff0181114610139578063104e81ff1461015757806318160ddd14610173575b600080fd5b61012361035f565b6040516101309190611543565b60405180910390f35b6101416103f1565b60405161014e9190611680565b60405180910390f35b610171600480360381019061016c91906112c0565b610408565b005b61017b6106af565b6040516101889190611665565b60405180910390f35b6101ab60048036038101906101a69190611313565b6106b9565b005b6101b56107ac565b6040516101c29190611680565b60405180910390f35b6101d36107c3565b6040516101e0919061150d565b60405180910390f35b61020360048036038101906101fe9190611253565b6107ed565b6040516102109190611665565b60405180910390f35b610221610836565b60405161022e9190611665565b60405180910390f35b61023f61083f565b60405161024c919061150d565b60405180910390f35b61025d610869565b60405161026a9190611543565b60405180910390f35b61028d60048036038101906102889190611253565b6108fb565b60405161029a9190611528565b60405180910390f35b6102bd60048036038101906102b89190611313565b610951565b005b6102d960048036038101906102d49190611353565b6109ef565b005b6102f560048036038101906102f09190611253565b610aeb565b005b610311600480360381019061030c9190611253565b610b87565b005b61032d60048036038101906103289190611313565b610c9e565b005b61034960048036038101906103449190611280565b610d91565b6040516103569190611665565b60405180910390f35b60606004805461036e906117c9565b80601f016020809104026020016040519081016040528092919081815260200182805461039a906117c9565b80156103e75780601f106103bc576101008083540402835291602001916103e7565b820191906000526020600020905b8154815290600101906020018083116103ca57829003601f168201915b5050505050905090565b6000600360149054906101000a900460ff16905090565b600660009054906101000a900473ffffffffffffffffffffffffffffffffffffffff1673ffffffffffffffffffffffffffffffffffffffff163373ffffffffffffffffffffffffffffffffffffffff161461046257600080fd5b600073ffffffffffffffffffffffffffffffffffffffff168373ffffffffffffffffffffffffffffffffffffffff1614156104d2576040517f08c379a00000000000000000000000000000000000000000000000000000000081526004016104c990611605565b60405180910390fd5b600073ffffffffffffffffffffffffffffffffffffffff168273ffffffffffffffffffffffffffffffffffffffff161415610542576040517f08c379a000000000000000000000000000000000000000000000000000000000815260040161053990611585565b60405180910390fd5b80600860008573ffffffffffffffffffffffffffffffffffffffff1673ffffffffffffffffffffffffffffffffffffffff1681526020019081526020016000205410156105c4576040517f08c379a00000000000000000000000000000000000000000000000000000000081526004016105bb906115c5565b60405180910390fd5b80600960008573ffffffffffffffffffffffffffffffffffffffff1673ffffffffffffffffffffffffffffffffffffffff16815260200190815260200160002060008473ffffffffffffffffffffffffffffffffffffffff1673ffffffffffffffffffffffffffffffffffffffff168152602001908152602001600020819055508173ffffffffffffffffffffffffffffffffffffffff168373ffffffffffffffffffffffffffffffffffffffff167f8c5be1e5ebec7d5bd14f71427d1e84f3dd0314c0f7b2291e5b200ac8c7c3b925836040516106a29190611665565b60405180910390a3505050565b6000600154905090565b600660009054906101000a900473ffffffffffffffffffffffffffffffffffffffff1673ffffffffffffffffffffffffffffffffffffffff163373ffffffffffffffffffffffffffffffffffffffff161461071357600080fd5b61076581600860008573ffffffffffffffffffffffffffffffffffffffff1673ffffffffffffffffffffffffffffffffffffffff16815260200190815260200160002054610e1890919063ffffffff16565b600860008473ffffffffffffffffffffffffffffffffffffffff1673ffffffffffffffffffffffffffffffffffffffff168152602001908152602001600020819055505050565b6000600360149054906101000a900460ff16905090565b6000600660009054906101000a900473ffffffffffffffffffffffffffffffffffffffff16905090565b6000600860008373ffffffffffffffffffffffffffffffffffffffff1673ffffffffffffffffffffffffffffffffffffffff168152602001908152602001600020549050919050565b60008054905090565b6000600360009054906101000a900473ffffffffffffffffffffffffffffffffffffffff16905090565b606060058054610878906117c9565b80601f01602080910402602001604051908101604052809291908181526020018280546108a4906117c9565b80156108f15780601f106108c6576101008083540402835291602001916108f1565b820191906000526020600020905b8154815290600101906020018083116108d457829003601f168201915b5050505050905090565b6000600a60008373ffffffffffffffffffffffffffffffffffffffff1673ffffffffffffffffffffffffffffffffffffffff16815260200190815260200160002060009054906101000a900460ff169050919050565b600360009054906101000a900473ffffffffffffffffffffffffffffffffffffffff1673ffffffffffffffffffffffffffffffffffffffff163373ffffffffffffffffffffffffffffffffffffffff16146109e1576040517f08c379a00000000000000000000000000000000000000000000000000000000081526004016109d890611565565b60405180910390fd5b6109eb8282610e2e565b5050565b600360009054906101000a900473ffffffffffffffffffffffffffffffffffffffff1673ffffffffffffffffffffffffffffffffffffffff163373ffffffffffffffffffffffffffffffffffffffff1614610a7f576040517f08c379a0000000000000000000000000000000000000000000000000000000008152600401610a7690611565565b60405180910390fd5b62015180610a9860075442610fd990919063ffffffff16565b10610ad8576040517f08c379a0000000000000000000000000000000000000000000000000000000008152600401610acf906115e5565b60405180910390fd5b42600781905550610ae881610fef565b50565b600360009054906101000a900473ffffffffffffffffffffffffffffffffffffffff1673ffffffffffffffffffffffffffffffffffffffff163373ffffffffffffffffffffffffffffffffffffffff1614610b7b576040517f08c379a0000000000000000000000000000000000000000000000000000000008152600401610b7290611565565b60405180910390fd5b610b8481611183565b50565b600360009054906101000a900473ffffffffffffffffffffffffffffffffffffffff1673ffffffffffffffffffffffffffffffffffffffff163373ffffffffffffffffffffffffffffffffffffffff1614610c17576040517f08c379a0000000000000000000000000000000000000000000000000000000008152600401610c0e90611565565b60405180910390fd5b80600660006101000a81548173ffffffffffffffffffffffffffffffffffffffff021916908373ffffffffffffffffffffffffffffffffffffffff1602179055508073ffffffffffffffffffffffffffffffffffffffff167f4266e6fbb8959f13370d6c9c3fc92469a89560a3c5de4e6e9128ee5d6dd215ab60405160405180910390a250565b600660009054906101000a900473ffffffffffffffffffffffffffffffffffffffff1673ffffffffffffffffffffffffffffffffffffffff163373ffffffffffffffffffffffffffffffffffffffff1614610cf857600080fd5b610d4a81600860008573ffffffffffffffffffffffffffffffffffffffff1673ffffffffffffffffffffffffffffffffffffffff16815260200190815260200160002054610fd990919063ffffffff16565b600860008473ffffffffffffffffffffffffffffffffffffffff1673ffffffffffffffffffffffffffffffffffffffff168152602001908152602001600020819055505050565b6000600960008473ffffffffffffffffffffffffffffffffffffffff1673ffffffffffffffffffffffffffffffffffffffff16815260200190815260200160002060008373ffffffffffffffffffffffffffffffffffffffff1673ffffffffffffffffffffffffffffffffffffffff16815260200190815260200160002054905092915050565b60008183610e2691906116b7565b905092915050565b600073ffffffffffffffffffffffffffffffffffffffff168273ffffffffffffffffffffffffffffffffffffffff161415610e9e576040517f08c379a0000000000000000000000000000000000000000000000000000000008152600401610e95906115a5565b60405180910390fd5b6000600860008473ffffffffffffffffffffffffffffffffffffffff1673ffffffffffffffffffffffffffffffffffffffff16815260200190815260200160002054905081811015610f25576040517f08c379a0000000000000000000000000000000000000000000000000000000008152600401610f1c90611645565b60405180910390fd5b818103600860008573ffffffffffffffffffffffffffffffffffffffff1673ffffffffffffffffffffffffffffffffffffffff16815260200190815260200160002081905550610f8082600154610e1890919063ffffffff16565b6001819055508273ffffffffffffffffffffffffffffffffffffffff167fcc16f5dbb4873280815c1ee09dbd06736cffcc184412cf7a71a0fdb75d397ca583604051610fcc9190611665565b60405180910390a2505050565b60008183610fe7919061170d565b905092915050565b600073ffffffffffffffffffffffffffffffffffffffff1661100f611221565b73ffffffffffffffffffffffffffffffffffffffff161415611066576040517f08c379a000000000000000000000000000000000000000000000000000000000815260040161105d90611625565b60405180910390fd5b8060028190555061108281600154610e1890919063ffffffff16565b6001819055506110e18160086000611098611221565b73ffffffffffffffffffffffffffffffffffffffff1673ffffffffffffffffffffffffffffffffffffffff16815260200190815260200160002054610e1890919063ffffffff16565b600860006110ed611221565b73ffffffffffffffffffffffffffffffffffffffff1673ffffffffffffffffffffffffffffffffffffffff16815260200190815260200160002081905550611133611221565b73ffffffffffffffffffffffffffffffffffffffff167f0f6798a560793a54c3bcfe86a93cde1e73087d944c0ea20544137d4121396885826040516111789190611665565b60405180910390a250565b6001600a60008373ffffffffffffffffffffffffffffffffffffffff1673ffffffffffffffffffffffffffffffffffffffff16815260200190815260200160002060006101000a81548160ff0219169083151502179055508073ffffffffffffffffffffffffffffffffffffffff167f3b3eb1c1f5a6918f3105e9373dac9b548b78f966a094028cd81864f6dd4a45a360405160405180910390a250565b600033905090565b60008135905061123881611a9b565b92915050565b60008135905061124d81611ab2565b92915050565b60006020828403121561126957611268611859565b5b600061127784828501611229565b91505092915050565b6000806040838503121561129757611296611859565b5b60006112a585828601611229565b92505060206112b685828601611229565b9150509250929050565b6000806000606084860312156112d9576112d8611859565b5b60006112e786828701611229565b93505060206112f886828701611229565b92505060406113098682870161123e565b9150509250925092565b6000806040838503121561132a57611329611859565b5b600061133885828601611229565b92505060206113498582860161123e565b9150509250929050565b60006020828403121561136957611368611859565b5b60006113778482850161123e565b91505092915050565b61138981611741565b82525050565b61139881611753565b82525050565b60006113a98261169b565b6113b381856116a6565b93506113c3818560208601611796565b6113cc8161185e565b840191505092915050565b60006113e4602a836116a6565b91506113ef8261186f565b604082019050919050565b60006114076022836116a6565b9150611412826118be565b604082019050919050565b600061142a601f836116a6565b91506114358261190d565b602082019050919050565b600061144d602a836116a6565b915061145882611936565b604082019050919050565b6000611470602d836116a6565b915061147b82611985565b604082019050919050565b60006114936024836116a6565b915061149e826119d4565b604082019050919050565b60006114b6601f836116a6565b91506114c182611a23565b602082019050919050565b60006114d96021836116a6565b91506114e482611a4c565b604082019050919050565b6114f88161177f565b82525050565b61150781611789565b82525050565b60006020820190506115226000830184611380565b92915050565b600060208201905061153d600083018461138f565b92915050565b6000602082019050818103600083015261155d818461139e565b905092915050565b6000602082019050818103600083015261157e816113d7565b9050919050565b6000602082019050818103600083015261159e816113fa565b9050919050565b600060208201905081810360008301526115be8161141d565b9050919050565b600060208201905081810360008301526115de81611440565b9050919050565b600060208201905081810360008301526115fe81611463565b9050919050565b6000602082019050818103600083015261161e81611486565b9050919050565b6000602082019050818103600083015261163e816114a9565b9050919050565b6000602082019050818103600083015261165e816114cc565b9050919050565b600060208201905061167a60008301846114ef565b92915050565b600060208201905061169560008301846114fe565b92915050565b600081519050919050565b600082825260208201905092915050565b60006116c28261177f565b91506116cd8361177f565b9250827fffffffffffffffffffffffffffffffffffffffffffffffffffffffffffffffff03821115611702576117016117fb565b5b828201905092915050565b60006117188261177f565b91506117238361177f565b925082821015611736576117356117fb565b5b828203905092915050565b600061174c8261175f565b9050919050565b60008115159050919050565b600073ffffffffffffffffffffffffffffffffffffffff82169050919050565b6000819050919050565b600060ff82169050919050565b60005b838110156117b4578082015181840152602081019050611799565b838111156117c3576000848401525b50505050565b600060028204905060018216806117e157607f821691505b602082108114156117f5576117f461182a565b5b50919050565b7f4e487b7100000000000000000000000000000000000000000000000000000000600052601160045260246000fd5b7f4e487b7100000000000000000000000000000000000000000000000000000000600052602260045260246000fd5b600080fd5b6000601f19601f8301169050919050565b7f4f6e6c7920746865206f776e6572206f662074686520636f6e7472616374206360008201527f616e20646f207468697300000000000000000000000000000000000000000000602082015250565b7f45524332303a20617070726f766520746f20746865207a65726f20616464726560008201527f7373000000000000000000000000000000000000000000000000000000000000602082015250565b7f45524332303a206275726e20746f20746865207a65726f206164647265737300600082015250565b7f45524332303a2062616c616e6365206c657373207468616e20616d6f756e742060008201527f746f20617070726f766500000000000000000000000000000000000000000000602082015250565b7f746869732066756e6374696f6e2063616e2062652063616c6c6564206a75737460008201527f206f6e6365207065722064617900000000000000000000000000000000000000602082015250565b7f45524332303a20617070726f76652066726f6d20746865207a65726f2061646460008201527f7265737300000000000000000000000000000000000000000000000000000000602082015250565b7f45524332303a206d696e7420746f20746865207a65726f206164647265737300600082015250565b7f45524332303a206275726e20616d756e7420657863656564732062616c616e6360008201527f6500000000000000000000000000000000000000000000000000000000000000602082015250565b611aa481611741565b8114611aaf57600080fd5b50565b611abb8161177f565b8114611ac657600080fd5b5056fea2646970667358221220d8ab3270788a1cde2e25a0c05af230be381943ff8c1a7ed32417ea4e7769b75664736f6c63430008070033",
  "immutableReferences": {},
  "source": "// SPDX-License-Identifier: MIT\npragma solidity ^0.8.0;\n\nimport \"@openzeppelin/contracts/utils/math/SafeMath.sol\";\nimport \"@openzeppelin/contracts/utils/Context.sol\";\nimport \"@openzeppelin/contracts/utils/Strings.sol\";\n\ncontract BoltTokenProxy is Context {\n    using SafeMath for uint256;\n\n    // ## EVENTS ##\n    event Mint(address indexed _account, uint256 _amount);\n    event Burn(address indexed _account, uint256 _amount);\n    event Approval(\n        address indexed _owner,\n        address indexed _spender,\n        uint256 _value\n    );\n    event SetAddressOfImplementation(address indexed _implementationAddress);\n    event AddPerpetualAddress(address indexed _newAddress);\n\n    // ## GLOBAL VARIABLES ##\n    uint256 private initialSupply;\n    uint256 private currentSupply;\n    uint256 private totalMintedToday;\n    address private owner;\n    uint8 private numberOfDecimals;\n    string private nameOfToken;\n    string private symbolOfToken;\n    address private implementationAddress;\n    uint256 private lastTimestamp;\n\n    mapping(address => uint256) private balances;\n    mapping(address => mapping(address => uint256)) private allowances;\n\n    mapping(address => bool) private isPerpetualAddress;\n\n    // ## MODIFIERS ##\n    modifier onlyOwner() {\n        require(\n            msg.sender == owner,\n            \"Only the owner of the contract can do this\"\n        );\n        _;\n    }\n\n    modifier onlyImplementation() {\n        require(msg.sender == implementationAddress);\n        _;\n    }\n\n    modifier oneTimeADay() {\n        require(\n            block.timestamp.sub(lastTimestamp) < 1 days,\n            \"this function can be called just once per day\"\n        );\n        _;\n    }\n\n    // ## CONSTRUCTOR ##\n    constructor(\n        uint256 _initialSupply,\n        string memory _name,\n        string memory _symbol,\n        uint8 _numberOfDecimals\n    ) {\n        owner = msg.sender;\n        _mint(_initialSupply);\n        nameOfToken = _name;\n        symbolOfToken = _symbol;\n        numberOfDecimals = _numberOfDecimals;\n    }\n\n    // ## PUBLIC FUNCTIONS ##\n    // # GET #\n    function name() public view returns (string memory) {\n        return nameOfToken;\n    }\n\n    function symbol() public view returns (string memory) {\n        return symbolOfToken;\n    }\n\n    function decimals() public view returns (uint8) {\n        return numberOfDecimals;\n    }\n\n    function getOwner() public view returns (address) {\n        return owner;\n    }\n\n    function getInitialSupply() public view returns (uint256) {\n        return initialSupply;\n    }\n\n    function totalSupply() public view returns (uint256) {\n        return currentSupply;\n    }\n\n    function getNumberOfDecimals() public view returns (uint8) {\n        return numberOfDecimals;\n    }\n\n    function getAddressOfImplementation() public view returns (address) {\n        return implementationAddress;\n    }\n\n    function balanceOf(address _user) public view returns (uint256) {\n        return balances[_user];\n    }\n\n    function isTheAddressAPerpetual(address _address)\n        public\n        view\n        returns (bool)\n    {\n        return isPerpetualAddress[_address];\n    }\n\n    function allowance(address _owner, address _spender)\n        public\n        view\n        returns (uint256)\n    {\n        return allowances[_owner][_spender];\n    }\n\n    // ## PUBLIC FUNCTIONS (ONLY IMPLEMENTATION) ##\n    //ADD FUNDS\n    function addBalance(address _to, uint256 _value) public onlyImplementation {\n        balances[_to] = balances[_to].add(_value);\n    }\n\n    //SUBTRACT FUNDS\n    function subBalance(address _from, uint256 _value)\n        public\n        onlyImplementation\n    {\n        balances[_from] = balances[_from].sub(_value);\n    }\n\n    //_APPROVE\n    function _approve(\n        address _owner,\n        address _spender,\n        uint256 _amount\n    ) public onlyImplementation {\n        require(_owner != address(0), \"ERC20: approve from the zero address\");\n        require(_spender != address(0), \"ERC20: approve to the zero address\");\n        require(\n            balances[_owner] >= _amount,\n            \"ERC20: balance less than amount to approve\"\n        );\n        allowances[_owner][_spender] = _amount;\n        emit Approval(_owner, _spender, _amount);\n    }\n\n    // ## PUBLIC FUNCTIONS (ONLY OWNER) ##\n    //ADD PERPETUAL ADDRESS\n    function addPerpetualAddress(address _newAddress) public onlyOwner {\n        _addPerpetualAddress(_newAddress);\n    }\n\n    //BURN\n    function burn(address _account, uint256 _amount) public onlyOwner {\n        _burn(_account, _amount);\n    }\n\n    //MINT (ONE TIME A DAY)\n    function mint(uint256 _amount) public onlyOwner oneTimeADay {\n        lastTimestamp = block.timestamp;\n        _mint(_amount);\n    }\n\n    // # SET #\n    function setAddressOfImplementation(address _implementationAddress)\n        public\n        onlyOwner\n    {\n        implementationAddress = _implementationAddress;\n\n        emit SetAddressOfImplementation(_implementationAddress);\n    }\n\n    // ## PRIVATE ##\n    //_ADD PERPETUAL ADDRESS\n    function _addPerpetualAddress(address _newAddress) private {\n        isPerpetualAddress[_newAddress] = true;\n\n        emit AddPerpetualAddress(_newAddress);\n    }\n\n    //_BURN\n    function _burn(address _account, uint256 _amount) private {\n        require(_account != address(0), \"ERC20: burn to the zero address\");\n        uint256 accountBalance = balances[_account];\n        require(accountBalance >= _amount, \"ERC20: burn amunt exceeds balance\");\n        unchecked {\n            balances[_account] = accountBalance - _amount;\n        }\n        currentSupply = currentSupply.add(_amount);\n        emit Burn(_account, _amount);\n    }\n\n    //_MINT\n    function _mint(uint256 _amount) private {\n        require(_msgSender() != address(0), \"ERC20: mint to the zero address\");\n        totalMintedToday = _amount;\n        currentSupply = currentSupply.add(_amount);\n        balances[_msgSender()] = balances[_msgSender()].add(_amount);\n        emit Mint(_msgSender(), _amount);\n    }\n}\n",
  "sourcePath": "/Users/nick/Documents/work/StormContract/contracts/BoltTokenProxy.sol",
  "compiler": {
    "name": "solc",
    "version": "0.8.7+commit.e28d00a7.Emscripten.clang"
  },
  "schemaVersion": "3.4.2",
  "updatedAt": "2021-09-01T13:19:26.895Z",
  "networkType": "ethereum",
  "devdoc": {
    "kind": "dev",
    "methods": {},
    "version": 1
  },
  "userdoc": {
    "kind": "user",
    "methods": {},
    "version": 1
  }
}