{
  "contractName": "BoltTokenProxy",
  "abi": [
    {
      "inputs": [
        {
          "internalType": "uint256",
          "name": "_initialSupply",
          "type": "uint256"
        },
        {
          "internalType": "uint256",
          "name": "_currenSupply",
          "type": "uint256"
        },
        {
          "internalType": "string",
          "name": "_name",
          "type": "string"
        },
        {
          "internalType": "string",
          "name": "_symbol",
          "type": "string"
        },
        {
          "internalType": "uint8",
          "name": "_numberOfDecimals",
          "type": "uint8"
        }
      ],
      "stateMutability": "nonpayable",
      "type": "constructor"
    },
    {
      "anonymous": false,
      "inputs": [
        {
          "indexed": true,
          "internalType": "address",
          "name": "owner",
          "type": "address"
        },
        {
          "indexed": true,
          "internalType": "address",
          "name": "spender",
          "type": "address"
        },
        {
          "indexed": false,
          "internalType": "uint256",
          "name": "value",
          "type": "uint256"
        }
      ],
      "name": "Approval",
      "type": "event"
    },
    {
      "anonymous": false,
      "inputs": [
        {
          "indexed": true,
          "internalType": "address",
          "name": "_account",
          "type": "address"
        },
        {
          "indexed": false,
          "internalType": "uint256",
          "name": "_amount",
          "type": "uint256"
        }
      ],
      "name": "Burn",
      "type": "event"
    },
    {
      "anonymous": false,
      "inputs": [
        {
          "indexed": true,
          "internalType": "address",
          "name": "_account",
          "type": "address"
        },
        {
          "indexed": false,
          "internalType": "uint256",
          "name": "_amount",
          "type": "uint256"
        }
      ],
      "name": "Mint",
      "type": "event"
    },
    {
      "inputs": [
        {
          "internalType": "address",
          "name": "_from",
          "type": "address"
        },
        {
          "internalType": "uint256",
          "name": "_value",
          "type": "uint256"
        }
      ],
      "name": "subtractFunds",
      "outputs": [],
      "stateMutability": "nonpayable",
      "type": "function"
    },
    {
      "inputs": [
        {
          "internalType": "address",
          "name": "_to",
          "type": "address"
        },
        {
          "internalType": "uint256",
          "name": "_value",
          "type": "uint256"
        }
      ],
      "name": "addFunds",
      "outputs": [],
      "stateMutability": "nonpayable",
      "type": "function"
    },
    {
      "inputs": [],
      "name": "getAddressOfImplementation",
      "outputs": [
        {
          "internalType": "address",
          "name": "",
          "type": "address"
        }
      ],
      "stateMutability": "view",
      "type": "function",
      "constant": true
    },
    {
      "inputs": [
        {
          "internalType": "address",
          "name": "_implementationAddress",
          "type": "address"
        }
      ],
      "name": "setAddressOfImplementation",
      "outputs": [],
      "stateMutability": "nonpayable",
      "type": "function"
    },
    {
      "inputs": [],
      "name": "totalSupply",
      "outputs": [
        {
          "internalType": "uint256",
          "name": "",
          "type": "uint256"
        }
      ],
      "stateMutability": "view",
      "type": "function",
      "constant": true
    },
    {
      "inputs": [],
      "name": "getInitialSupply",
      "outputs": [
        {
          "internalType": "uint256",
          "name": "",
          "type": "uint256"
        }
      ],
      "stateMutability": "view",
      "type": "function",
      "constant": true
    },
    {
      "inputs": [],
      "name": "getOwner",
      "outputs": [
        {
          "internalType": "address",
          "name": "",
          "type": "address"
        }
      ],
      "stateMutability": "view",
      "type": "function",
      "constant": true
    },
    {
      "inputs": [],
      "name": "name",
      "outputs": [
        {
          "internalType": "string",
          "name": "",
          "type": "string"
        }
      ],
      "stateMutability": "view",
      "type": "function",
      "constant": true
    },
    {
      "inputs": [],
      "name": "symbol",
      "outputs": [
        {
          "internalType": "string",
          "name": "",
          "type": "string"
        }
      ],
      "stateMutability": "view",
      "type": "function",
      "constant": true
    },
    {
      "inputs": [],
      "name": "decimals",
      "outputs": [
        {
          "internalType": "uint8",
          "name": "",
          "type": "uint8"
        }
      ],
      "stateMutability": "view",
      "type": "function",
      "constant": true
    },
    {
      "inputs": [
        {
          "internalType": "address",
          "name": "_user",
          "type": "address"
        }
      ],
      "name": "balanceOf",
      "outputs": [
        {
          "internalType": "uint256",
          "name": "",
          "type": "uint256"
        }
      ],
      "stateMutability": "view",
      "type": "function",
      "constant": true
    },
    {
      "inputs": [],
      "name": "getNumberOfDecimals",
      "outputs": [
        {
          "internalType": "uint8",
          "name": "",
          "type": "uint8"
        }
      ],
      "stateMutability": "view",
      "type": "function",
      "constant": true
    },
    {
      "inputs": [
        {
          "internalType": "address",
          "name": "_owner",
          "type": "address"
        },
        {
          "internalType": "address",
          "name": "_spender",
          "type": "address"
        }
      ],
      "name": "allowance",
      "outputs": [
        {
          "internalType": "uint256",
          "name": "",
          "type": "uint256"
        }
      ],
      "stateMutability": "view",
      "type": "function",
      "constant": true
    },
    {
      "inputs": [
        {
          "internalType": "address",
          "name": "_owner",
          "type": "address"
        },
        {
          "internalType": "address",
          "name": "_spender",
          "type": "address"
        },
        {
          "internalType": "uint256",
          "name": "_amount",
          "type": "uint256"
        }
      ],
      "name": "_approve",
      "outputs": [],
      "stateMutability": "nonpayable",
      "type": "function"
    },
    {
      "inputs": [
        {
          "internalType": "address",
          "name": "_account",
          "type": "address"
        },
        {
          "internalType": "uint256",
          "name": "_amount",
          "type": "uint256"
        }
      ],
      "name": "mint",
      "outputs": [],
      "stateMutability": "nonpayable",
      "type": "function"
    },
    {
      "inputs": [
        {
          "internalType": "address",
          "name": "_account",
          "type": "address"
        },
        {
          "internalType": "uint256",
          "name": "_amount",
          "type": "uint256"
        }
      ],
      "name": "burn",
      "outputs": [],
      "stateMutability": "nonpayable",
      "type": "function"
    }
  ],
  "bytecode": "0x60806040523480156200001157600080fd5b5060405162001df238038062001df283398181016040528101906200003791906200040e565b846000819055508360018190555033600260006101000a81548173ffffffffffffffffffffffffffffffffffffffff021916908373ffffffffffffffffffffffffffffffffffffffff160217905550620000bd600260009054906101000a900473ffffffffffffffffffffffffffffffffffffffff16620f42406200011560201b60201c565b8260039080519060200190620000d5929190620002b2565b508160049080519060200190620000ee929190620002b2565b5080600260146101000a81548160ff021916908360ff1602179055505050505050620007e0565b600073ffffffffffffffffffffffffffffffffffffffff168273ffffffffffffffffffffffffffffffffffffffff16141562000188576040517f08c379a00000000000000000000000000000000000000000000000000000000081526004016200017f906200050c565b60405180910390fd5b620001a4816001546200029a60201b62000b3c1790919060201c565b6001819055506200020381600660008573ffffffffffffffffffffffffffffffffffffffff1673ffffffffffffffffffffffffffffffffffffffff168152602001908152602001600020546200029a60201b62000b3c1790919060201c565b600660008473ffffffffffffffffffffffffffffffffffffffff1673ffffffffffffffffffffffffffffffffffffffff168152602001908152602001600020819055508173ffffffffffffffffffffffffffffffffffffffff167f0f6798a560793a54c3bcfe86a93cde1e73087d944c0ea20544137d4121396885826040516200028e91906200052e565b60405180910390a25050565b60008183620002aa9190620005bb565b905092915050565b828054620002c09062000665565b90600052602060002090601f016020900481019282620002e4576000855562000330565b82601f10620002ff57805160ff191683800117855562000330565b8280016001018555821562000330579182015b828111156200032f57825182559160200191906001019062000312565b5b5090506200033f919062000343565b5090565b5b808211156200035e57600081600090555060010162000344565b5090565b600062000379620003738462000574565b6200054b565b90508281526020810184848401111562000398576200039762000763565b5b620003a58482856200062f565b509392505050565b600082601f830112620003c557620003c46200075e565b5b8151620003d784826020860162000362565b91505092915050565b600081519050620003f181620007ac565b92915050565b6000815190506200040881620007c6565b92915050565b600080600080600060a086880312156200042d576200042c6200076d565b5b60006200043d88828901620003e0565b95505060206200045088828901620003e0565b945050604086015167ffffffffffffffff81111562000474576200047362000768565b5b6200048288828901620003ad565b935050606086015167ffffffffffffffff811115620004a657620004a562000768565b5b620004b488828901620003ad565b9250506080620004c788828901620003f7565b9150509295509295909350565b6000620004e3601f83620005aa565b9150620004f08262000783565b602082019050919050565b620005068162000618565b82525050565b600060208201905081810360008301526200052781620004d4565b9050919050565b6000602082019050620005456000830184620004fb565b92915050565b6000620005576200056a565b90506200056582826200069b565b919050565b6000604051905090565b600067ffffffffffffffff8211156200059257620005916200072f565b5b6200059d8262000772565b9050602081019050919050565b600082825260208201905092915050565b6000620005c88262000618565b9150620005d58362000618565b9250827fffffffffffffffffffffffffffffffffffffffffffffffffffffffffffffffff038211156200060d576200060c620006d1565b5b828201905092915050565b6000819050919050565b600060ff82169050919050565b60005b838110156200064f57808201518184015260208101905062000632565b838111156200065f576000848401525b50505050565b600060028204905060018216806200067e57607f821691505b6020821081141562000695576200069462000700565b5b50919050565b620006a68262000772565b810181811067ffffffffffffffff82111715620006c857620006c76200072f565b5b80604052505050565b7f4e487b7100000000000000000000000000000000000000000000000000000000600052601160045260246000fd5b7f4e487b7100000000000000000000000000000000000000000000000000000000600052602260045260246000fd5b7f4e487b7100000000000000000000000000000000000000000000000000000000600052604160045260246000fd5b600080fd5b600080fd5b600080fd5b600080fd5b6000601f19601f8301169050919050565b7f45524332303a206d696e7420746f20746865207a65726f206164647265737300600082015250565b620007b78162000618565b8114620007c357600080fd5b50565b620007d18162000622565b8114620007dd57600080fd5b50565b61160280620007f06000396000f3fe608060405234801561001057600080fd5b50600436106101005760003560e01c806370a08231116100975780639dc29fac116100665780639dc29fac14610279578063bc3117b814610295578063bc4b3365146102b1578063dd62ed3e146102cd57610100565b806370a08231146101ef57806381a4a6d81461021f578063893d20e81461023d57806395d89b411461025b57610100565b806318160ddd116100d357806318160ddd14610179578063313ce567146101975780633d375f69146101b557806340c10f19146101d357610100565b806306fdde03146101055780630c61411f146101235780630ff018111461013f578063104e81ff1461015d575b600080fd5b61010d6102fd565b60405161011a919061110a565b60405180910390f35b61013d60048036038101906101389190610f77565b61038f565b005b610147610482565b6040516101549190611207565b60405180910390f35b61017760048036038101906101729190610f24565b610499565b005b6101816106be565b60405161018e91906111ec565b60405180910390f35b61019f6106c8565b6040516101ac9190611207565b60405180910390f35b6101bd6106df565b6040516101ca91906110ef565b60405180910390f35b6101ed60048036038101906101e89190610f77565b610709565b005b61020960048036038101906102049190610eb7565b610771565b60405161021691906111ec565b60405180910390f35b6102276107ba565b60405161023491906111ec565b60405180910390f35b6102456107c3565b60405161025291906110ef565b60405180910390f35b6102636107ed565b604051610270919061110a565b60405180910390f35b610293600480360381019061028e9190610f77565b61087f565b005b6102af60048036038101906102aa9190610eb7565b6108e7565b005b6102cb60048036038101906102c69190610f77565b6109c2565b005b6102e760048036038101906102e29190610ee4565b610ab5565b6040516102f491906111ec565b60405180910390f35b60606003805461030c90611344565b80601f016020809104026020016040519081016040528092919081815260200182805461033890611344565b80156103855780601f1061035a57610100808354040283529160200191610385565b820191906000526020600020905b81548152906001019060200180831161036857829003601f168201915b5050505050905090565b600560009054906101000a900473ffffffffffffffffffffffffffffffffffffffff1673ffffffffffffffffffffffffffffffffffffffff163373ffffffffffffffffffffffffffffffffffffffff16146103e957600080fd5b61043b81600660008573ffffffffffffffffffffffffffffffffffffffff1673ffffffffffffffffffffffffffffffffffffffff16815260200190815260200160002054610b5290919063ffffffff16565b600660008473ffffffffffffffffffffffffffffffffffffffff1673ffffffffffffffffffffffffffffffffffffffff168152602001908152602001600020819055505050565b6000600260149054906101000a900460ff16905090565b600560009054906101000a900473ffffffffffffffffffffffffffffffffffffffff1673ffffffffffffffffffffffffffffffffffffffff163373ffffffffffffffffffffffffffffffffffffffff16146104f357600080fd5b600073ffffffffffffffffffffffffffffffffffffffff168373ffffffffffffffffffffffffffffffffffffffff161415610563576040517f08c379a000000000000000000000000000000000000000000000000000000000815260040161055a9061118c565b60405180910390fd5b600073ffffffffffffffffffffffffffffffffffffffff168273ffffffffffffffffffffffffffffffffffffffff1614156105d3576040517f08c379a00000000000000000000000000000000000000000000000000000000081526004016105ca9061112c565b60405180910390fd5b80600760008573ffffffffffffffffffffffffffffffffffffffff1673ffffffffffffffffffffffffffffffffffffffff16815260200190815260200160002060008473ffffffffffffffffffffffffffffffffffffffff1673ffffffffffffffffffffffffffffffffffffffff168152602001908152602001600020819055508173ffffffffffffffffffffffffffffffffffffffff168373ffffffffffffffffffffffffffffffffffffffff167f8c5be1e5ebec7d5bd14f71427d1e84f3dd0314c0f7b2291e5b200ac8c7c3b925836040516106b191906111ec565b60405180910390a3505050565b6000600154905090565b6000600260149054906101000a900460ff16905090565b6000600560009054906101000a900473ffffffffffffffffffffffffffffffffffffffff16905090565b600260009054906101000a900473ffffffffffffffffffffffffffffffffffffffff1673ffffffffffffffffffffffffffffffffffffffff163373ffffffffffffffffffffffffffffffffffffffff161461076357600080fd5b61076d8282610b68565b5050565b6000600660008373ffffffffffffffffffffffffffffffffffffffff1673ffffffffffffffffffffffffffffffffffffffff168152602001908152602001600020549050919050565b60008054905090565b6000600260009054906101000a900473ffffffffffffffffffffffffffffffffffffffff16905090565b6060600480546107fc90611344565b80601f016020809104026020016040519081016040528092919081815260200182805461082890611344565b80156108755780601f1061084a57610100808354040283529160200191610875565b820191906000526020600020905b81548152906001019060200180831161085857829003601f168201915b5050505050905090565b600260009054906101000a900473ffffffffffffffffffffffffffffffffffffffff1673ffffffffffffffffffffffffffffffffffffffff163373ffffffffffffffffffffffffffffffffffffffff16146108d957600080fd5b6108e38282610cda565b5050565b600260009054906101000a900473ffffffffffffffffffffffffffffffffffffffff1673ffffffffffffffffffffffffffffffffffffffff16610928610e85565b73ffffffffffffffffffffffffffffffffffffffff161461097e576040517f08c379a00000000000000000000000000000000000000000000000000000000081526004016109759061116c565b60405180910390fd5b80600560006101000a81548173ffffffffffffffffffffffffffffffffffffffff021916908373ffffffffffffffffffffffffffffffffffffffff16021790555050565b600560009054906101000a900473ffffffffffffffffffffffffffffffffffffffff1673ffffffffffffffffffffffffffffffffffffffff163373ffffffffffffffffffffffffffffffffffffffff1614610a1c57600080fd5b610a6e81600660008573ffffffffffffffffffffffffffffffffffffffff1673ffffffffffffffffffffffffffffffffffffffff16815260200190815260200160002054610b3c90919063ffffffff16565b600660008473ffffffffffffffffffffffffffffffffffffffff1673ffffffffffffffffffffffffffffffffffffffff168152602001908152602001600020819055505050565b6000600760008473ffffffffffffffffffffffffffffffffffffffff1673ffffffffffffffffffffffffffffffffffffffff16815260200190815260200160002060008373ffffffffffffffffffffffffffffffffffffffff1673ffffffffffffffffffffffffffffffffffffffff16815260200190815260200160002054905092915050565b60008183610b4a919061123e565b905092915050565b60008183610b609190611294565b905092915050565b600073ffffffffffffffffffffffffffffffffffffffff168273ffffffffffffffffffffffffffffffffffffffff161415610bd8576040517f08c379a0000000000000000000000000000000000000000000000000000000008152600401610bcf906111ac565b60405180910390fd5b610bed81600154610b3c90919063ffffffff16565b600181905550610c4581600660008573ffffffffffffffffffffffffffffffffffffffff1673ffffffffffffffffffffffffffffffffffffffff16815260200190815260200160002054610b3c90919063ffffffff16565b600660008473ffffffffffffffffffffffffffffffffffffffff1673ffffffffffffffffffffffffffffffffffffffff168152602001908152602001600020819055508173ffffffffffffffffffffffffffffffffffffffff167f0f6798a560793a54c3bcfe86a93cde1e73087d944c0ea20544137d412139688582604051610cce91906111ec565b60405180910390a25050565b600073ffffffffffffffffffffffffffffffffffffffff168273ffffffffffffffffffffffffffffffffffffffff161415610d4a576040517f08c379a0000000000000000000000000000000000000000000000000000000008152600401610d419061114c565b60405180910390fd5b6000600660008473ffffffffffffffffffffffffffffffffffffffff1673ffffffffffffffffffffffffffffffffffffffff16815260200190815260200160002054905081811015610dd1576040517f08c379a0000000000000000000000000000000000000000000000000000000008152600401610dc8906111cc565b60405180910390fd5b818103600660008573ffffffffffffffffffffffffffffffffffffffff1673ffffffffffffffffffffffffffffffffffffffff16815260200190815260200160002081905550610e2c82600154610b3c90919063ffffffff16565b6001819055508273ffffffffffffffffffffffffffffffffffffffff167fcc16f5dbb4873280815c1ee09dbd06736cffcc184412cf7a71a0fdb75d397ca583604051610e7891906111ec565b60405180910390a2505050565b600033905090565b600081359050610e9c8161159e565b92915050565b600081359050610eb1816115b5565b92915050565b600060208284031215610ecd57610ecc6113d4565b5b6000610edb84828501610e8d565b91505092915050565b60008060408385031215610efb57610efa6113d4565b5b6000610f0985828601610e8d565b9250506020610f1a85828601610e8d565b9150509250929050565b600080600060608486031215610f3d57610f3c6113d4565b5b6000610f4b86828701610e8d565b9350506020610f5c86828701610e8d565b9250506040610f6d86828701610ea2565b9150509250925092565b60008060408385031215610f8e57610f8d6113d4565b5b6000610f9c85828601610e8d565b9250506020610fad85828601610ea2565b9150509250929050565b610fc0816112c8565b82525050565b6000610fd182611222565b610fdb818561122d565b9350610feb818560208601611311565b610ff4816113d9565b840191505092915050565b600061100c60228361122d565b9150611017826113ea565b604082019050919050565b600061102f601f8361122d565b915061103a82611439565b602082019050919050565b600061105260488361122d565b915061105d82611462565b606082019050919050565b600061107560248361122d565b9150611080826114d7565b604082019050919050565b6000611098601f8361122d565b91506110a382611526565b602082019050919050565b60006110bb60218361122d565b91506110c68261154f565b604082019050919050565b6110da816112fa565b82525050565b6110e981611304565b82525050565b60006020820190506111046000830184610fb7565b92915050565b600060208201905081810360008301526111248184610fc6565b905092915050565b6000602082019050818103600083015261114581610fff565b9050919050565b6000602082019050818103600083015261116581611022565b9050919050565b6000602082019050818103600083015261118581611045565b9050919050565b600060208201905081810360008301526111a581611068565b9050919050565b600060208201905081810360008301526111c58161108b565b9050919050565b600060208201905081810360008301526111e5816110ae565b9050919050565b600060208201905061120160008301846110d1565b92915050565b600060208201905061121c60008301846110e0565b92915050565b600081519050919050565b600082825260208201905092915050565b6000611249826112fa565b9150611254836112fa565b9250827fffffffffffffffffffffffffffffffffffffffffffffffffffffffffffffffff0382111561128957611288611376565b5b828201905092915050565b600061129f826112fa565b91506112aa836112fa565b9250828210156112bd576112bc611376565b5b828203905092915050565b60006112d3826112da565b9050919050565b600073ffffffffffffffffffffffffffffffffffffffff82169050919050565b6000819050919050565b600060ff82169050919050565b60005b8381101561132f578082015181840152602081019050611314565b8381111561133e576000848401525b50505050565b6000600282049050600182168061135c57607f821691505b602082108114156113705761136f6113a5565b5b50919050565b7f4e487b7100000000000000000000000000000000000000000000000000000000600052601160045260246000fd5b7f4e487b7100000000000000000000000000000000000000000000000000000000600052602260045260246000fd5b600080fd5b6000601f19601f8301169050919050565b7f45524332303a20617070726f766520746f20746865207a65726f20616464726560008201527f7373000000000000000000000000000000000000000000000000000000000000602082015250565b7f45524332303a206275726e20746f20746865207a65726f206164647265737300600082015250565b7f4f6e6c7920746865206f776e6572206f662074686520636f6e7472616374206360008201527f616e20736574207468652061646472657373206f662074686520696d706c656d60208201527f656e746174696f6e000000000000000000000000000000000000000000000000604082015250565b7f45524332303a20617070726f76652066726f6d20746865207a65726f2061646460008201527f7265737300000000000000000000000000000000000000000000000000000000602082015250565b7f45524332303a206d696e7420746f20746865207a65726f206164647265737300600082015250565b7f45524332303a206275726e20616d756e7420657863656564732062616c616e6360008201527f6500000000000000000000000000000000000000000000000000000000000000602082015250565b6115a7816112c8565b81146115b257600080fd5b50565b6115be816112fa565b81146115c957600080fd5b5056fea264697066735822122039e289dee135114df8cc7982d680e06e481e3dab1cb066549783ed5526c464dd64736f6c63430008070033",
  "immutableReferences": {},
  "source": "// SPDX-License-Identifier: MIT\npragma solidity 0.8.7;\n\nimport \"@openzeppelin/contracts/utils/math/SafeMath.sol\";\nimport \"@openzeppelin/contracts/utils/Context.sol\";\nimport \"@openzeppelin/contracts/utils/Strings.sol\";\n\ncontract BoltTokenProxy is Context {\n    using SafeMath for uint256;\n    uint256 private initialSupply;\n    uint256 private currentSupply;\n    address private owner;\n    uint8 private numberOfDecimals;\n    string private nameOfToken;\n    string private symbolOfToken;\n    address private implementationAddress;\n\n    mapping(address => uint256) private balances;\n    mapping(address => mapping(address => uint256)) private allowances;\n\n    constructor(\n        uint256 _initialSupply,\n        uint256 _currenSupply,\n        string memory _name,\n        string memory _symbol,\n        uint8 _numberOfDecimals\n    ) {\n        initialSupply = _initialSupply;\n        currentSupply = _currenSupply;\n        owner = msg.sender;\n        _mint(owner, 1000000);\n        nameOfToken = _name;\n        symbolOfToken = _symbol;\n        numberOfDecimals = _numberOfDecimals;\n    }\n\n   \n    function subtractFunds(address _from, uint256 _value)\n        public\n        onlyImplementation()\n    {\n        \n        balances[_from] = balances[_from].sub(_value);\n    }\n\n    function addFunds(address _to, uint256 _value) public onlyImplementation() {\n        balances[_to] = balances[_to].add(_value);\n    }\n\n    function getAddressOfImplementation() external view returns (address) {\n        return implementationAddress;\n    }\n\n    function setAddressOfImplementation(address _implementationAddress) public {\n        require(\n            _msgSender() == owner,\n            \"Only the owner of the contract can set the address of the implementation\"\n        );\n        implementationAddress = _implementationAddress;\n    }\n\n    function totalSupply() external view returns (uint256) {\n        return currentSupply;\n    }\n\n    function getInitialSupply() external view returns (uint256) {\n        return initialSupply;\n    }\n\n    function getOwner() external view returns (address) {\n        return owner;\n    }\n\n    function name() external view returns (string memory) {\n        return nameOfToken;\n    }\n\n    function symbol() external view returns (string memory) {\n        return symbolOfToken;\n    }\n\n    function decimals() external view returns (uint8) {\n        return numberOfDecimals;\n    }\n\n    function balanceOf(address _user) external view returns (uint256) {\n        return balances[_user];\n    }\n\n    function getNumberOfDecimals() external view returns (uint8) {\n        return numberOfDecimals;\n    }\n\n    function allowance(address _owner, address _spender)\n        public\n        view\n        returns (uint256)\n    {\n        return allowances[_owner][_spender];\n    }\n\n    function _approve(\n        address _owner,\n        address _spender,\n        uint256 _amount\n    ) public onlyImplementation() {\n        require(_owner != address(0), \"ERC20: approve from the zero address\");\n        require(_spender != address(0), \"ERC20: approve to the zero address\");\n        allowances[_owner][_spender] = _amount;\n        emit Approval(_owner, _spender, _amount);\n\n    }\n\n    function mint(address _account, uint256 _amount) public onlyAdmin() {\n        _mint(_account, _amount);\n    }\n\n    function _mint(address _account, uint256 _amount) internal {\n        require(_account != address(0), \"ERC20: mint to the zero address\");\n        currentSupply = currentSupply.add(_amount);\n        balances[_account] = balances[_account].add(_amount);\n        emit Mint(_account, _amount);\n    }\n\n    function burn(address _account, uint256 _amount) public onlyAdmin() {\n        _burn(_account, _amount);\n    }\n\n    function _burn(address _account, uint256 _amount) internal {\n        require(_account != address(0), \"ERC20: burn to the zero address\");\n        uint256 accountBalance = balances[_account];\n        require(accountBalance >= _amount, \"ERC20: burn amunt exceeds balance\");\n        unchecked {\n            balances[_account] = accountBalance - _amount;\n        }\n        currentSupply = currentSupply.add(_amount);\n        emit Burn(_account, _amount);\n    }\n\n    event Mint(address indexed _account, uint256 _amount);\n    event Burn(address indexed _account, uint256 _amount);\n    event Approval(\n        address indexed owner,\n        address indexed spender,\n        uint256 value\n    );\n    modifier onlyAdmin() {\n        require(msg.sender == owner);\n        _;\n    }\n\n    modifier onlyImplementation() {\n        require(msg.sender == implementationAddress);\n        _;\n    }\n}\n",
  "sourcePath": "/Users/nick/Documents/work/StormContract/contracts/BoltTokenProxy.sol",
  "compiler": {
    "name": "solc",
    "version": "0.8.7+commit.e28d00a7.Emscripten.clang"
  },
  "schemaVersion": "3.4.2",
  "updatedAt": "2021-08-30T12:46:20.193Z",
  "networkType": "ethereum",
  "devdoc": {
    "kind": "dev",
    "methods": {},
    "version": 1
  },
  "userdoc": {
    "kind": "user",
    "methods": {},
    "version": 1
  }
}