{
  "contractName": "BoltTokenProxy",
  "abi": [
    {
      "inputs": [
        {
          "internalType": "uint256",
          "name": "_initialSupply",
          "type": "uint256"
        },
        {
          "internalType": "uint256",
          "name": "_currenSupply",
          "type": "uint256"
        },
        {
          "internalType": "string",
          "name": "_name",
          "type": "string"
        },
        {
          "internalType": "string",
          "name": "_symbol",
          "type": "string"
        },
        {
          "internalType": "uint8",
          "name": "_numberOfDecimals",
          "type": "uint8"
        }
      ],
      "stateMutability": "nonpayable",
      "type": "constructor"
    },
    {
      "anonymous": false,
      "inputs": [
        {
          "indexed": true,
          "internalType": "address",
          "name": "owner",
          "type": "address"
        },
        {
          "indexed": true,
          "internalType": "address",
          "name": "spender",
          "type": "address"
        },
        {
          "indexed": false,
          "internalType": "uint256",
          "name": "value",
          "type": "uint256"
        }
      ],
      "name": "Approval",
      "type": "event"
    },
    {
      "anonymous": false,
      "inputs": [
        {
          "indexed": true,
          "internalType": "address",
          "name": "_account",
          "type": "address"
        },
        {
          "indexed": false,
          "internalType": "uint256",
          "name": "_amount",
          "type": "uint256"
        }
      ],
      "name": "Burn",
      "type": "event"
    },
    {
      "anonymous": false,
      "inputs": [
        {
          "indexed": true,
          "internalType": "address",
          "name": "_account",
          "type": "address"
        },
        {
          "indexed": false,
          "internalType": "uint256",
          "name": "_amount",
          "type": "uint256"
        }
      ],
      "name": "Mint",
      "type": "event"
    },
    {
      "inputs": [
        {
          "internalType": "address",
          "name": "_from",
          "type": "address"
        },
        {
          "internalType": "uint256",
          "name": "_value",
          "type": "uint256"
        }
      ],
      "name": "subtractFunds",
      "outputs": [],
      "stateMutability": "nonpayable",
      "type": "function"
    },
    {
      "inputs": [
        {
          "internalType": "address",
          "name": "_to",
          "type": "address"
        },
        {
          "internalType": "uint256",
          "name": "_value",
          "type": "uint256"
        }
      ],
      "name": "addFunds",
      "outputs": [],
      "stateMutability": "nonpayable",
      "type": "function"
    },
    {
      "inputs": [],
      "name": "getAddressOfImplementation",
      "outputs": [
        {
          "internalType": "address",
          "name": "",
          "type": "address"
        }
      ],
      "stateMutability": "view",
      "type": "function",
      "constant": true
    },
    {
      "inputs": [
        {
          "internalType": "address",
          "name": "_implementationAddress",
          "type": "address"
        }
      ],
      "name": "setAddressOfImplementation",
      "outputs": [],
      "stateMutability": "nonpayable",
      "type": "function"
    },
    {
      "inputs": [],
      "name": "totalSupply",
      "outputs": [
        {
          "internalType": "uint256",
          "name": "",
          "type": "uint256"
        }
      ],
      "stateMutability": "view",
      "type": "function",
      "constant": true
    },
    {
      "inputs": [],
      "name": "getInitialSupply",
      "outputs": [
        {
          "internalType": "uint256",
          "name": "",
          "type": "uint256"
        }
      ],
      "stateMutability": "view",
      "type": "function",
      "constant": true
    },
    {
      "inputs": [],
      "name": "getOwner",
      "outputs": [
        {
          "internalType": "address",
          "name": "",
          "type": "address"
        }
      ],
      "stateMutability": "view",
      "type": "function",
      "constant": true
    },
    {
      "inputs": [],
      "name": "name",
      "outputs": [
        {
          "internalType": "string",
          "name": "",
          "type": "string"
        }
      ],
      "stateMutability": "view",
      "type": "function",
      "constant": true
    },
    {
      "inputs": [],
      "name": "symbol",
      "outputs": [
        {
          "internalType": "string",
          "name": "",
          "type": "string"
        }
      ],
      "stateMutability": "view",
      "type": "function",
      "constant": true
    },
    {
      "inputs": [],
      "name": "decimals",
      "outputs": [
        {
          "internalType": "uint8",
          "name": "",
          "type": "uint8"
        }
      ],
      "stateMutability": "view",
      "type": "function",
      "constant": true
    },
    {
      "inputs": [
        {
          "internalType": "address",
          "name": "_user",
          "type": "address"
        }
      ],
      "name": "balanceOf",
      "outputs": [
        {
          "internalType": "uint256",
          "name": "",
          "type": "uint256"
        }
      ],
      "stateMutability": "view",
      "type": "function",
      "constant": true
    },
    {
      "inputs": [],
      "name": "getNumberOfDecimals",
      "outputs": [
        {
          "internalType": "uint8",
          "name": "",
          "type": "uint8"
        }
      ],
      "stateMutability": "view",
      "type": "function",
      "constant": true
    },
    {
      "inputs": [
        {
          "internalType": "address",
          "name": "_owner",
          "type": "address"
        },
        {
          "internalType": "address",
          "name": "_spender",
          "type": "address"
        }
      ],
      "name": "allowance",
      "outputs": [
        {
          "internalType": "uint256",
          "name": "",
          "type": "uint256"
        }
      ],
      "stateMutability": "view",
      "type": "function",
      "constant": true
    },
    {
      "inputs": [
        {
          "internalType": "address",
          "name": "_owner",
          "type": "address"
        },
        {
          "internalType": "address",
          "name": "_spender",
          "type": "address"
        },
        {
          "internalType": "uint256",
          "name": "_amount",
          "type": "uint256"
        }
      ],
      "name": "_approve",
      "outputs": [],
      "stateMutability": "nonpayable",
      "type": "function"
    },
    {
      "inputs": [
        {
          "internalType": "address",
          "name": "_account",
          "type": "address"
        },
        {
          "internalType": "uint256",
          "name": "_amount",
          "type": "uint256"
        }
      ],
      "name": "mint",
      "outputs": [],
      "stateMutability": "nonpayable",
      "type": "function"
    },
    {
      "inputs": [
        {
          "internalType": "address",
          "name": "_account",
          "type": "address"
        },
        {
          "internalType": "uint256",
          "name": "_amount",
          "type": "uint256"
        }
      ],
      "name": "burn",
      "outputs": [],
      "stateMutability": "nonpayable",
      "type": "function"
    }
  ],
  "bytecode": "0x60806040523480156200001157600080fd5b5060405162001f0638038062001f0683398181016040528101906200003791906200040e565b846000819055508360018190555033600260006101000a81548173ffffffffffffffffffffffffffffffffffffffff021916908373ffffffffffffffffffffffffffffffffffffffff160217905550620000bd600260009054906101000a900473ffffffffffffffffffffffffffffffffffffffff16622dc6c06200011560201b60201c565b8260039080519060200190620000d5929190620002b2565b508160049080519060200190620000ee929190620002b2565b5080600260146101000a81548160ff021916908360ff1602179055505050505050620007e0565b600073ffffffffffffffffffffffffffffffffffffffff168273ffffffffffffffffffffffffffffffffffffffff16141562000188576040517f08c379a00000000000000000000000000000000000000000000000000000000081526004016200017f906200050c565b60405180910390fd5b620001a4816001546200029a60201b62000bbe1790919060201c565b6001819055506200020381600660008573ffffffffffffffffffffffffffffffffffffffff1673ffffffffffffffffffffffffffffffffffffffff168152602001908152602001600020546200029a60201b62000bbe1790919060201c565b600660008473ffffffffffffffffffffffffffffffffffffffff1673ffffffffffffffffffffffffffffffffffffffff168152602001908152602001600020819055508173ffffffffffffffffffffffffffffffffffffffff167f0f6798a560793a54c3bcfe86a93cde1e73087d944c0ea20544137d4121396885826040516200028e91906200052e565b60405180910390a25050565b60008183620002aa9190620005bb565b905092915050565b828054620002c09062000665565b90600052602060002090601f016020900481019282620002e4576000855562000330565b82601f10620002ff57805160ff191683800117855562000330565b8280016001018555821562000330579182015b828111156200032f57825182559160200191906001019062000312565b5b5090506200033f919062000343565b5090565b5b808211156200035e57600081600090555060010162000344565b5090565b600062000379620003738462000574565b6200054b565b90508281526020810184848401111562000398576200039762000763565b5b620003a58482856200062f565b509392505050565b600082601f830112620003c557620003c46200075e565b5b8151620003d784826020860162000362565b91505092915050565b600081519050620003f181620007ac565b92915050565b6000815190506200040881620007c6565b92915050565b600080600080600060a086880312156200042d576200042c6200076d565b5b60006200043d88828901620003e0565b95505060206200045088828901620003e0565b945050604086015167ffffffffffffffff81111562000474576200047362000768565b5b6200048288828901620003ad565b935050606086015167ffffffffffffffff811115620004a657620004a562000768565b5b620004b488828901620003ad565b9250506080620004c788828901620003f7565b9150509295509295909350565b6000620004e3601f83620005aa565b9150620004f08262000783565b602082019050919050565b620005068162000618565b82525050565b600060208201905081810360008301526200052781620004d4565b9050919050565b6000602082019050620005456000830184620004fb565b92915050565b6000620005576200056a565b90506200056582826200069b565b919050565b6000604051905090565b600067ffffffffffffffff8211156200059257620005916200072f565b5b6200059d8262000772565b9050602081019050919050565b600082825260208201905092915050565b6000620005c88262000618565b9150620005d58362000618565b9250827fffffffffffffffffffffffffffffffffffffffffffffffffffffffffffffffff038211156200060d576200060c620006d1565b5b828201905092915050565b6000819050919050565b600060ff82169050919050565b60005b838110156200064f57808201518184015260208101905062000632565b838111156200065f576000848401525b50505050565b600060028204905060018216806200067e57607f821691505b6020821081141562000695576200069462000700565b5b50919050565b620006a68262000772565b810181811067ffffffffffffffff82111715620006c857620006c76200072f565b5b80604052505050565b7f4e487b7100000000000000000000000000000000000000000000000000000000600052601160045260246000fd5b7f4e487b7100000000000000000000000000000000000000000000000000000000600052602260045260246000fd5b7f4e487b7100000000000000000000000000000000000000000000000000000000600052604160045260246000fd5b600080fd5b600080fd5b600080fd5b600080fd5b6000601f19601f8301169050919050565b7f45524332303a206d696e7420746f20746865207a65726f206164647265737300600082015250565b620007b78162000618565b8114620007c357600080fd5b50565b620007d18162000622565b8114620007dd57600080fd5b50565b61171680620007f06000396000f3fe608060405234801561001057600080fd5b50600436106101005760003560e01c806370a08231116100975780639dc29fac116100665780639dc29fac14610279578063bc3117b814610295578063bc4b3365146102b1578063dd62ed3e146102cd57610100565b806370a08231146101ef57806381a4a6d81461021f578063893d20e81461023d57806395d89b411461025b57610100565b806318160ddd116100d357806318160ddd14610179578063313ce567146101975780633d375f69146101b557806340c10f19146101d357610100565b806306fdde03146101055780630c61411f146101235780630ff018111461013f578063104e81ff1461015d575b600080fd5b61010d6102fd565b60405161011a91906111af565b60405180910390f35b61013d60048036038101906101389190610ff9565b61038f565b005b610147610482565b60405161015491906112cc565b60405180910390f35b61017760048036038101906101729190610fa6565b610499565b005b610181610740565b60405161018e91906112b1565b60405180910390f35b61019f61074a565b6040516101ac91906112cc565b60405180910390f35b6101bd610761565b6040516101ca9190611194565b60405180910390f35b6101ed60048036038101906101e89190610ff9565b61078b565b005b61020960048036038101906102049190610f39565b6107f3565b60405161021691906112b1565b60405180910390f35b61022761083c565b60405161023491906112b1565b60405180910390f35b610245610845565b6040516102529190611194565b60405180910390f35b61026361086f565b60405161027091906111af565b60405180910390f35b610293600480360381019061028e9190610ff9565b610901565b005b6102af60048036038101906102aa9190610f39565b610969565b005b6102cb60048036038101906102c69190610ff9565b610a44565b005b6102e760048036038101906102e29190610f66565b610b37565b6040516102f491906112b1565b60405180910390f35b60606003805461030c90611409565b80601f016020809104026020016040519081016040528092919081815260200182805461033890611409565b80156103855780601f1061035a57610100808354040283529160200191610385565b820191906000526020600020905b81548152906001019060200180831161036857829003601f168201915b5050505050905090565b600560009054906101000a900473ffffffffffffffffffffffffffffffffffffffff1673ffffffffffffffffffffffffffffffffffffffff163373ffffffffffffffffffffffffffffffffffffffff16146103e957600080fd5b61043b81600660008573ffffffffffffffffffffffffffffffffffffffff1673ffffffffffffffffffffffffffffffffffffffff16815260200190815260200160002054610bd490919063ffffffff16565b600660008473ffffffffffffffffffffffffffffffffffffffff1673ffffffffffffffffffffffffffffffffffffffff168152602001908152602001600020819055505050565b6000600260149054906101000a900460ff16905090565b600560009054906101000a900473ffffffffffffffffffffffffffffffffffffffff1673ffffffffffffffffffffffffffffffffffffffff163373ffffffffffffffffffffffffffffffffffffffff16146104f357600080fd5b600073ffffffffffffffffffffffffffffffffffffffff168373ffffffffffffffffffffffffffffffffffffffff161415610563576040517f08c379a000000000000000000000000000000000000000000000000000000000815260040161055a90611251565b60405180910390fd5b600073ffffffffffffffffffffffffffffffffffffffff168273ffffffffffffffffffffffffffffffffffffffff1614156105d3576040517f08c379a00000000000000000000000000000000000000000000000000000000081526004016105ca906111d1565b60405180910390fd5b80600660008573ffffffffffffffffffffffffffffffffffffffff1673ffffffffffffffffffffffffffffffffffffffff168152602001908152602001600020541015610655576040517f08c379a000000000000000000000000000000000000000000000000000000000815260040161064c90611211565b60405180910390fd5b80600760008573ffffffffffffffffffffffffffffffffffffffff1673ffffffffffffffffffffffffffffffffffffffff16815260200190815260200160002060008473ffffffffffffffffffffffffffffffffffffffff1673ffffffffffffffffffffffffffffffffffffffff168152602001908152602001600020819055508173ffffffffffffffffffffffffffffffffffffffff168373ffffffffffffffffffffffffffffffffffffffff167f8c5be1e5ebec7d5bd14f71427d1e84f3dd0314c0f7b2291e5b200ac8c7c3b9258360405161073391906112b1565b60405180910390a3505050565b6000600154905090565b6000600260149054906101000a900460ff16905090565b6000600560009054906101000a900473ffffffffffffffffffffffffffffffffffffffff16905090565b600260009054906101000a900473ffffffffffffffffffffffffffffffffffffffff1673ffffffffffffffffffffffffffffffffffffffff163373ffffffffffffffffffffffffffffffffffffffff16146107e557600080fd5b6107ef8282610bea565b5050565b6000600660008373ffffffffffffffffffffffffffffffffffffffff1673ffffffffffffffffffffffffffffffffffffffff168152602001908152602001600020549050919050565b60008054905090565b6000600260009054906101000a900473ffffffffffffffffffffffffffffffffffffffff16905090565b60606004805461087e90611409565b80601f01602080910402602001604051908101604052809291908181526020018280546108aa90611409565b80156108f75780601f106108cc576101008083540402835291602001916108f7565b820191906000526020600020905b8154815290600101906020018083116108da57829003601f168201915b5050505050905090565b600260009054906101000a900473ffffffffffffffffffffffffffffffffffffffff1673ffffffffffffffffffffffffffffffffffffffff163373ffffffffffffffffffffffffffffffffffffffff161461095b57600080fd5b6109658282610d5c565b5050565b600260009054906101000a900473ffffffffffffffffffffffffffffffffffffffff1673ffffffffffffffffffffffffffffffffffffffff166109aa610f07565b73ffffffffffffffffffffffffffffffffffffffff1614610a00576040517f08c379a00000000000000000000000000000000000000000000000000000000081526004016109f790611231565b60405180910390fd5b80600560006101000a81548173ffffffffffffffffffffffffffffffffffffffff021916908373ffffffffffffffffffffffffffffffffffffffff16021790555050565b600560009054906101000a900473ffffffffffffffffffffffffffffffffffffffff1673ffffffffffffffffffffffffffffffffffffffff163373ffffffffffffffffffffffffffffffffffffffff1614610a9e57600080fd5b610af081600660008573ffffffffffffffffffffffffffffffffffffffff1673ffffffffffffffffffffffffffffffffffffffff16815260200190815260200160002054610bbe90919063ffffffff16565b600660008473ffffffffffffffffffffffffffffffffffffffff1673ffffffffffffffffffffffffffffffffffffffff168152602001908152602001600020819055505050565b6000600760008473ffffffffffffffffffffffffffffffffffffffff1673ffffffffffffffffffffffffffffffffffffffff16815260200190815260200160002060008373ffffffffffffffffffffffffffffffffffffffff1673ffffffffffffffffffffffffffffffffffffffff16815260200190815260200160002054905092915050565b60008183610bcc9190611303565b905092915050565b60008183610be29190611359565b905092915050565b600073ffffffffffffffffffffffffffffffffffffffff168273ffffffffffffffffffffffffffffffffffffffff161415610c5a576040517f08c379a0000000000000000000000000000000000000000000000000000000008152600401610c5190611271565b60405180910390fd5b610c6f81600154610bbe90919063ffffffff16565b600181905550610cc781600660008573ffffffffffffffffffffffffffffffffffffffff1673ffffffffffffffffffffffffffffffffffffffff16815260200190815260200160002054610bbe90919063ffffffff16565b600660008473ffffffffffffffffffffffffffffffffffffffff1673ffffffffffffffffffffffffffffffffffffffff168152602001908152602001600020819055508173ffffffffffffffffffffffffffffffffffffffff167f0f6798a560793a54c3bcfe86a93cde1e73087d944c0ea20544137d412139688582604051610d5091906112b1565b60405180910390a25050565b600073ffffffffffffffffffffffffffffffffffffffff168273ffffffffffffffffffffffffffffffffffffffff161415610dcc576040517f08c379a0000000000000000000000000000000000000000000000000000000008152600401610dc3906111f1565b60405180910390fd5b6000600660008473ffffffffffffffffffffffffffffffffffffffff1673ffffffffffffffffffffffffffffffffffffffff16815260200190815260200160002054905081811015610e53576040517f08c379a0000000000000000000000000000000000000000000000000000000008152600401610e4a90611291565b60405180910390fd5b818103600660008573ffffffffffffffffffffffffffffffffffffffff1673ffffffffffffffffffffffffffffffffffffffff16815260200190815260200160002081905550610eae82600154610bbe90919063ffffffff16565b6001819055508273ffffffffffffffffffffffffffffffffffffffff167fcc16f5dbb4873280815c1ee09dbd06736cffcc184412cf7a71a0fdb75d397ca583604051610efa91906112b1565b60405180910390a2505050565b600033905090565b600081359050610f1e816116b2565b92915050565b600081359050610f33816116c9565b92915050565b600060208284031215610f4f57610f4e611499565b5b6000610f5d84828501610f0f565b91505092915050565b60008060408385031215610f7d57610f7c611499565b5b6000610f8b85828601610f0f565b9250506020610f9c85828601610f0f565b9150509250929050565b600080600060608486031215610fbf57610fbe611499565b5b6000610fcd86828701610f0f565b9350506020610fde86828701610f0f565b9250506040610fef86828701610f24565b9150509250925092565b600080604083850312156110105761100f611499565b5b600061101e85828601610f0f565b925050602061102f85828601610f24565b9150509250929050565b6110428161138d565b82525050565b6000611053826112e7565b61105d81856112f2565b935061106d8185602086016113d6565b6110768161149e565b840191505092915050565b600061108e6022836112f2565b9150611099826114af565b604082019050919050565b60006110b1601f836112f2565b91506110bc826114fe565b602082019050919050565b60006110d4602a836112f2565b91506110df82611527565b604082019050919050565b60006110f76048836112f2565b915061110282611576565b606082019050919050565b600061111a6024836112f2565b9150611125826115eb565b604082019050919050565b600061113d601f836112f2565b91506111488261163a565b602082019050919050565b60006111606021836112f2565b915061116b82611663565b604082019050919050565b61117f816113bf565b82525050565b61118e816113c9565b82525050565b60006020820190506111a96000830184611039565b92915050565b600060208201905081810360008301526111c98184611048565b905092915050565b600060208201905081810360008301526111ea81611081565b9050919050565b6000602082019050818103600083015261120a816110a4565b9050919050565b6000602082019050818103600083015261122a816110c7565b9050919050565b6000602082019050818103600083015261124a816110ea565b9050919050565b6000602082019050818103600083015261126a8161110d565b9050919050565b6000602082019050818103600083015261128a81611130565b9050919050565b600060208201905081810360008301526112aa81611153565b9050919050565b60006020820190506112c66000830184611176565b92915050565b60006020820190506112e16000830184611185565b92915050565b600081519050919050565b600082825260208201905092915050565b600061130e826113bf565b9150611319836113bf565b9250827fffffffffffffffffffffffffffffffffffffffffffffffffffffffffffffffff0382111561134e5761134d61143b565b5b828201905092915050565b6000611364826113bf565b915061136f836113bf565b9250828210156113825761138161143b565b5b828203905092915050565b60006113988261139f565b9050919050565b600073ffffffffffffffffffffffffffffffffffffffff82169050919050565b6000819050919050565b600060ff82169050919050565b60005b838110156113f45780820151818401526020810190506113d9565b83811115611403576000848401525b50505050565b6000600282049050600182168061142157607f821691505b602082108114156114355761143461146a565b5b50919050565b7f4e487b7100000000000000000000000000000000000000000000000000000000600052601160045260246000fd5b7f4e487b7100000000000000000000000000000000000000000000000000000000600052602260045260246000fd5b600080fd5b6000601f19601f8301169050919050565b7f45524332303a20617070726f766520746f20746865207a65726f20616464726560008201527f7373000000000000000000000000000000000000000000000000000000000000602082015250565b7f45524332303a206275726e20746f20746865207a65726f206164647265737300600082015250565b7f45524332303a2062616c616e6365206c657373207468616e20616d6f756e742060008201527f746f20617070726f766500000000000000000000000000000000000000000000602082015250565b7f4f6e6c7920746865206f776e6572206f662074686520636f6e7472616374206360008201527f616e20736574207468652061646472657373206f662074686520696d706c656d60208201527f656e746174696f6e000000000000000000000000000000000000000000000000604082015250565b7f45524332303a20617070726f76652066726f6d20746865207a65726f2061646460008201527f7265737300000000000000000000000000000000000000000000000000000000602082015250565b7f45524332303a206d696e7420746f20746865207a65726f206164647265737300600082015250565b7f45524332303a206275726e20616d756e7420657863656564732062616c616e6360008201527f6500000000000000000000000000000000000000000000000000000000000000602082015250565b6116bb8161138d565b81146116c657600080fd5b50565b6116d2816113bf565b81146116dd57600080fd5b5056fea2646970667358221220fd3c2811abc8f730e3e267693d7dc5855c834821f1c7bd330a457c9f7c575ead64736f6c63430008070033",
  "immutableReferences": {},
  "source": "// SPDX-License-Identifier: MIT\npragma solidity 0.8.7;\n\nimport \"@openzeppelin/contracts/utils/math/SafeMath.sol\";\nimport \"@openzeppelin/contracts/utils/Context.sol\";\nimport \"@openzeppelin/contracts/utils/Strings.sol\";\n\ncontract BoltTokenProxy is Context {\n    using SafeMath for uint256;\n    uint256 private initialSupply;\n    uint256 private currentSupply;\n    address private owner;\n    uint8 private numberOfDecimals;\n    string private nameOfToken;\n    string private symbolOfToken;\n    address private implementationAddress;\n\n    mapping(address => uint256) private balances;\n    mapping(address => mapping(address => uint256)) private allowances;\n\n    constructor(\n        uint256 _initialSupply,\n        uint256 _currenSupply,\n        string memory _name,\n        string memory _symbol,\n        uint8 _numberOfDecimals\n    ) {\n        initialSupply = _initialSupply;\n        currentSupply = _currenSupply;\n        owner = msg.sender;\n        _mint(owner, 3000000);\n        nameOfToken = _name;\n        symbolOfToken = _symbol;\n        numberOfDecimals = _numberOfDecimals;\n    }\n\n    function subtractFunds(address _from, uint256 _value)\n        public\n        onlyImplementation\n    {\n        balances[_from] = balances[_from].sub(_value);\n    }\n\n    function addFunds(address _to, uint256 _value) public onlyImplementation {\n        balances[_to] = balances[_to].add(_value);\n    }\n\n    function getAddressOfImplementation() external view returns (address) {\n        return implementationAddress;\n    }\n\n    function setAddressOfImplementation(address _implementationAddress) public {\n        require(\n            _msgSender() == owner,\n            \"Only the owner of the contract can set the address of the implementation\"\n        );\n        implementationAddress = _implementationAddress;\n    }\n\n    function totalSupply() external view returns (uint256) {\n        return currentSupply;\n    }\n\n    function getInitialSupply() external view returns (uint256) {\n        return initialSupply;\n    }\n\n    function getOwner() external view returns (address) {\n        return owner;\n    }\n\n    function name() external view returns (string memory) {\n        return nameOfToken;\n    }\n\n    function symbol() external view returns (string memory) {\n        return symbolOfToken;\n    }\n\n    function decimals() external view returns (uint8) {\n        return numberOfDecimals;\n    }\n\n    function balanceOf(address _user) external view returns (uint256) {\n        return balances[_user];\n    }\n\n    function getNumberOfDecimals() external view returns (uint8) {\n        return numberOfDecimals;\n    }\n\n    function allowance(address _owner, address _spender)\n        public\n        view\n        returns (uint256)\n    {\n        return allowances[_owner][_spender];\n    }\n\n    function _approve(\n        address _owner,\n        address _spender,\n        uint256 _amount\n    ) public onlyImplementation {\n        require(_owner != address(0), \"ERC20: approve from the zero address\");\n        require(_spender != address(0), \"ERC20: approve to the zero address\");\n        require(balances[_owner] >= _amount, \"ERC20: balance less than amount to approve\");\n        allowances[_owner][_spender] = _amount;\n        emit Approval(_owner, _spender, _amount);\n    }\n\n    function mint(address _account, uint256 _amount) public onlyAdmin {\n        _mint(_account, _amount);\n    }\n\n    function _mint(address _account, uint256 _amount) internal {\n        require(_account != address(0), \"ERC20: mint to the zero address\");\n        currentSupply = currentSupply.add(_amount);\n        balances[_account] = balances[_account].add(_amount);\n        emit Mint(_account, _amount);\n    }\n\n    function burn(address _account, uint256 _amount) public onlyAdmin {\n        _burn(_account, _amount);\n    }\n\n    function _burn(address _account, uint256 _amount) internal {\n        require(_account != address(0), \"ERC20: burn to the zero address\");\n        uint256 accountBalance = balances[_account];\n        require(accountBalance >= _amount, \"ERC20: burn amunt exceeds balance\");\n        unchecked {\n            balances[_account] = accountBalance - _amount;\n        }\n        currentSupply = currentSupply.add(_amount);\n        emit Burn(_account, _amount);\n    }\n\n    event Mint(address indexed _account, uint256 _amount);\n    event Burn(address indexed _account, uint256 _amount);\n    event Approval(\n        address indexed owner,\n        address indexed spender,\n        uint256 value\n    );\n    modifier onlyAdmin() {\n        require(msg.sender == owner);\n        _;\n    }\n\n    modifier onlyImplementation() {\n        require(msg.sender == implementationAddress);\n        _;\n    }\n}\n",
  "sourcePath": "/Users/nick/Documents/work/StormContract/contracts/BoltTokenProxy.sol",
  "compiler": {
    "name": "solc",
    "version": "0.8.7+commit.e28d00a7.Emscripten.clang"
  },
  "schemaVersion": "3.4.2",
  "updatedAt": "2021-09-01T09:02:55.469Z",
  "networkType": "ethereum",
  "devdoc": {
    "kind": "dev",
    "methods": {},
    "version": 1
  },
  "userdoc": {
    "kind": "user",
    "methods": {},
    "version": 1
  }
}