{
  "contractName": "BoltTokenProxy",
  "abi": [
    {
      "inputs": [
        {
          "internalType": "uint256",
          "name": "_initialSupply",
          "type": "uint256"
        },
        {
          "internalType": "uint256",
          "name": "_currenSupply",
          "type": "uint256"
        },
        {
          "internalType": "string",
          "name": "_name",
          "type": "string"
        },
        {
          "internalType": "string",
          "name": "_symbol",
          "type": "string"
        },
        {
          "internalType": "uint8",
          "name": "_numberOfDecimals",
          "type": "uint8"
        }
      ],
      "stateMutability": "nonpayable",
      "type": "constructor"
    },
    {
      "anonymous": false,
      "inputs": [
        {
          "indexed": true,
          "internalType": "address",
          "name": "owner",
          "type": "address"
        },
        {
          "indexed": true,
          "internalType": "address",
          "name": "spender",
          "type": "address"
        },
        {
          "indexed": false,
          "internalType": "uint256",
          "name": "value",
          "type": "uint256"
        }
      ],
      "name": "Approval",
      "type": "event"
    },
    {
      "anonymous": false,
      "inputs": [
        {
          "indexed": true,
          "internalType": "address",
          "name": "_account",
          "type": "address"
        },
        {
          "indexed": false,
          "internalType": "uint256",
          "name": "_amount",
          "type": "uint256"
        }
      ],
      "name": "Burn",
      "type": "event"
    },
    {
      "anonymous": false,
      "inputs": [
        {
          "indexed": true,
          "internalType": "address",
          "name": "_account",
          "type": "address"
        },
        {
          "indexed": false,
          "internalType": "uint256",
          "name": "_amount",
          "type": "uint256"
        }
      ],
      "name": "Mint",
      "type": "event"
    },
    {
      "inputs": [
        {
          "internalType": "address",
          "name": "_newAddress",
          "type": "address"
        }
      ],
      "name": "addPerpetualAddress",
      "outputs": [],
      "stateMutability": "nonpayable",
      "type": "function"
    },
    {
      "inputs": [
        {
          "internalType": "address",
          "name": "_address",
          "type": "address"
        }
      ],
      "name": "isTheAddressAPerpetual",
      "outputs": [
        {
          "internalType": "bool",
          "name": "",
          "type": "bool"
        }
      ],
      "stateMutability": "view",
      "type": "function",
      "constant": true
    },
    {
      "inputs": [
        {
          "internalType": "address",
          "name": "_from",
          "type": "address"
        },
        {
          "internalType": "uint256",
          "name": "_value",
          "type": "uint256"
        }
      ],
      "name": "subtractFunds",
      "outputs": [],
      "stateMutability": "nonpayable",
      "type": "function"
    },
    {
      "inputs": [
        {
          "internalType": "address",
          "name": "_to",
          "type": "address"
        },
        {
          "internalType": "uint256",
          "name": "_value",
          "type": "uint256"
        }
      ],
      "name": "addFunds",
      "outputs": [],
      "stateMutability": "nonpayable",
      "type": "function"
    },
    {
      "inputs": [],
      "name": "getAddressOfImplementation",
      "outputs": [
        {
          "internalType": "address",
          "name": "",
          "type": "address"
        }
      ],
      "stateMutability": "view",
      "type": "function",
      "constant": true
    },
    {
      "inputs": [
        {
          "internalType": "address",
          "name": "_implementationAddress",
          "type": "address"
        }
      ],
      "name": "setAddressOfImplementation",
      "outputs": [],
      "stateMutability": "nonpayable",
      "type": "function"
    },
    {
      "inputs": [],
      "name": "totalSupply",
      "outputs": [
        {
          "internalType": "uint256",
          "name": "",
          "type": "uint256"
        }
      ],
      "stateMutability": "view",
      "type": "function",
      "constant": true
    },
    {
      "inputs": [],
      "name": "getInitialSupply",
      "outputs": [
        {
          "internalType": "uint256",
          "name": "",
          "type": "uint256"
        }
      ],
      "stateMutability": "view",
      "type": "function",
      "constant": true
    },
    {
      "inputs": [],
      "name": "getOwner",
      "outputs": [
        {
          "internalType": "address",
          "name": "",
          "type": "address"
        }
      ],
      "stateMutability": "view",
      "type": "function",
      "constant": true
    },
    {
      "inputs": [],
      "name": "name",
      "outputs": [
        {
          "internalType": "string",
          "name": "",
          "type": "string"
        }
      ],
      "stateMutability": "view",
      "type": "function",
      "constant": true
    },
    {
      "inputs": [],
      "name": "symbol",
      "outputs": [
        {
          "internalType": "string",
          "name": "",
          "type": "string"
        }
      ],
      "stateMutability": "view",
      "type": "function",
      "constant": true
    },
    {
      "inputs": [],
      "name": "decimals",
      "outputs": [
        {
          "internalType": "uint8",
          "name": "",
          "type": "uint8"
        }
      ],
      "stateMutability": "view",
      "type": "function",
      "constant": true
    },
    {
      "inputs": [
        {
          "internalType": "address",
          "name": "_user",
          "type": "address"
        }
      ],
      "name": "balanceOf",
      "outputs": [
        {
          "internalType": "uint256",
          "name": "",
          "type": "uint256"
        }
      ],
      "stateMutability": "view",
      "type": "function",
      "constant": true
    },
    {
      "inputs": [],
      "name": "getNumberOfDecimals",
      "outputs": [
        {
          "internalType": "uint8",
          "name": "",
          "type": "uint8"
        }
      ],
      "stateMutability": "view",
      "type": "function",
      "constant": true
    },
    {
      "inputs": [
        {
          "internalType": "address",
          "name": "_owner",
          "type": "address"
        },
        {
          "internalType": "address",
          "name": "_spender",
          "type": "address"
        }
      ],
      "name": "allowance",
      "outputs": [
        {
          "internalType": "uint256",
          "name": "",
          "type": "uint256"
        }
      ],
      "stateMutability": "view",
      "type": "function",
      "constant": true
    },
    {
      "inputs": [
        {
          "internalType": "address",
          "name": "_owner",
          "type": "address"
        },
        {
          "internalType": "address",
          "name": "_spender",
          "type": "address"
        },
        {
          "internalType": "uint256",
          "name": "_amount",
          "type": "uint256"
        }
      ],
      "name": "_approve",
      "outputs": [],
      "stateMutability": "nonpayable",
      "type": "function"
    },
    {
      "inputs": [
        {
          "internalType": "uint256",
          "name": "_amount",
          "type": "uint256"
        }
      ],
      "name": "mint",
      "outputs": [],
      "stateMutability": "nonpayable",
      "type": "function"
    },
    {
      "inputs": [
        {
          "internalType": "address",
          "name": "_account",
          "type": "address"
        },
        {
          "internalType": "uint256",
          "name": "_amount",
          "type": "uint256"
        }
      ],
      "name": "burn",
      "outputs": [],
      "stateMutability": "nonpayable",
      "type": "function"
    },
    {
      "inputs": [],
      "name": "getTotalMintedToday",
      "outputs": [
        {
          "internalType": "uint256",
          "name": "",
          "type": "uint256"
        }
      ],
      "stateMutability": "view",
      "type": "function",
      "constant": true
    }
  ],
  "bytecode": "0x60806040523480156200001157600080fd5b506040516200224b3803806200224b833981810160405281019062000037919062000432565b846000819055508360018190555033600360006101000a81548173ffffffffffffffffffffffffffffffffffffffff021916908373ffffffffffffffffffffffffffffffffffffffff1602179055506200009785620000ef60201b60201c565b8260049080519060200190620000af929190620002d6565b508160059080519060200190620000c8929190620002d6565b5080600360146101000a81548160ff021916908360ff160217905550505050505062000804565b600073ffffffffffffffffffffffffffffffffffffffff1662000117620002b660201b60201c565b73ffffffffffffffffffffffffffffffffffffffff16141562000171576040517f08c379a0000000000000000000000000000000000000000000000000000000008152600401620001689062000530565b60405180910390fd5b806002819055506200019481600154620002be60201b62000d6d1790919060201c565b600181905550620002028160086000620001b3620002b660201b60201c565b73ffffffffffffffffffffffffffffffffffffffff1673ffffffffffffffffffffffffffffffffffffffff16815260200190815260200160002054620002be60201b62000d6d1790919060201c565b6008600062000216620002b660201b60201c565b73ffffffffffffffffffffffffffffffffffffffff1673ffffffffffffffffffffffffffffffffffffffff1681526020019081526020016000208190555062000264620002b660201b60201c565b73ffffffffffffffffffffffffffffffffffffffff167f0f6798a560793a54c3bcfe86a93cde1e73087d944c0ea20544137d412139688582604051620002ab919062000552565b60405180910390a250565b600033905090565b60008183620002ce9190620005df565b905092915050565b828054620002e49062000689565b90600052602060002090601f01602090048101928262000308576000855562000354565b82601f106200032357805160ff191683800117855562000354565b8280016001018555821562000354579182015b828111156200035357825182559160200191906001019062000336565b5b50905062000363919062000367565b5090565b5b808211156200038257600081600090555060010162000368565b5090565b60006200039d620003978462000598565b6200056f565b905082815260208101848484011115620003bc57620003bb62000787565b5b620003c984828562000653565b509392505050565b600082601f830112620003e957620003e862000782565b5b8151620003fb84826020860162000386565b91505092915050565b6000815190506200041581620007d0565b92915050565b6000815190506200042c81620007ea565b92915050565b600080600080600060a0868803121562000451576200045062000791565b5b6000620004618882890162000404565b9550506020620004748882890162000404565b945050604086015167ffffffffffffffff8111156200049857620004976200078c565b5b620004a688828901620003d1565b935050606086015167ffffffffffffffff811115620004ca57620004c96200078c565b5b620004d888828901620003d1565b9250506080620004eb888289016200041b565b9150509295509295909350565b600062000507601f83620005ce565b91506200051482620007a7565b602082019050919050565b6200052a816200063c565b82525050565b600060208201905081810360008301526200054b81620004f8565b9050919050565b60006020820190506200056960008301846200051f565b92915050565b60006200057b6200058e565b9050620005898282620006bf565b919050565b6000604051905090565b600067ffffffffffffffff821115620005b657620005b562000753565b5b620005c18262000796565b9050602081019050919050565b600082825260208201905092915050565b6000620005ec826200063c565b9150620005f9836200063c565b9250827fffffffffffffffffffffffffffffffffffffffffffffffffffffffffffffffff03821115620006315762000630620006f5565b5b828201905092915050565b6000819050919050565b600060ff82169050919050565b60005b838110156200067357808201518184015260208101905062000656565b8381111562000683576000848401525b50505050565b60006002820490506001821680620006a257607f821691505b60208210811415620006b957620006b862000724565b5b50919050565b620006ca8262000796565b810181811067ffffffffffffffff82111715620006ec57620006eb62000753565b5b80604052505050565b7f4e487b7100000000000000000000000000000000000000000000000000000000600052601160045260246000fd5b7f4e487b7100000000000000000000000000000000000000000000000000000000600052602260045260246000fd5b7f4e487b7100000000000000000000000000000000000000000000000000000000600052604160045260246000fd5b600080fd5b600080fd5b600080fd5b600080fd5b6000601f19601f8301169050919050565b7f45524332303a206d696e7420746f20746865207a65726f206164647265737300600082015250565b620007db816200063c565b8114620007e757600080fd5b50565b620007f58162000646565b81146200080157600080fd5b50565b611a3780620008146000396000f3fe608060405234801561001057600080fd5b50600436106101215760003560e01c806381a4a6d8116100ad578063a0712d6811610071578063a0712d68146102e8578063b673b19514610304578063bc3117b814610320578063bc4b33651461033c578063dd62ed3e1461035857610121565b806381a4a6d814610242578063893d20e81461026057806395d89b411461027e5780639768a31d1461029c5780639dc29fac146102cc57610121565b806318160ddd116100f457806318160ddd1461019a578063313ce567146101b85780633d375f69146101d657806370a08231146101f45780637937c03b1461022457610121565b806306fdde03146101265780630c61411f146101445780630ff0181114610160578063104e81ff1461017e575b600080fd5b61012e610388565b60405161013b9190611455565b60405180910390f35b61015e60048036038101906101599190611225565b61041a565b005b61016861050d565b6040516101759190611592565b60405180910390f35b610198600480360381019061019391906111d2565b610524565b005b6101a26107cb565b6040516101af9190611577565b60405180910390f35b6101c06107d5565b6040516101cd9190611592565b60405180910390f35b6101de6107ec565b6040516101eb919061141f565b60405180910390f35b61020e60048036038101906102099190611165565b610816565b60405161021b9190611577565b60405180910390f35b61022c61085f565b6040516102399190611577565b60405180910390f35b61024a610869565b6040516102579190611577565b60405180910390f35b610268610872565b604051610275919061141f565b60405180910390f35b61028661089c565b6040516102939190611455565b60405180910390f35b6102b660048036038101906102b19190611165565b61092e565b6040516102c3919061143a565b60405180910390f35b6102e660048036038101906102e19190611225565b610984565b005b61030260048036038101906102fd9190611265565b6109ec565b005b61031e60048036038101906103199190611165565b610ab2565b005b61033a60048036038101906103359190611165565b610b18565b005b61035660048036038101906103519190611225565b610bf3565b005b610372600480360381019061036d9190611192565b610ce6565b60405161037f9190611577565b60405180910390f35b606060048054610397906116db565b80601f01602080910402602001604051908101604052809291908181526020018280546103c3906116db565b80156104105780601f106103e557610100808354040283529160200191610410565b820191906000526020600020905b8154815290600101906020018083116103f357829003601f168201915b5050505050905090565b600660009054906101000a900473ffffffffffffffffffffffffffffffffffffffff1673ffffffffffffffffffffffffffffffffffffffff163373ffffffffffffffffffffffffffffffffffffffff161461047457600080fd5b6104c681600860008573ffffffffffffffffffffffffffffffffffffffff1673ffffffffffffffffffffffffffffffffffffffff16815260200190815260200160002054610d8390919063ffffffff16565b600860008473ffffffffffffffffffffffffffffffffffffffff1673ffffffffffffffffffffffffffffffffffffffff168152602001908152602001600020819055505050565b6000600360149054906101000a900460ff16905090565b600660009054906101000a900473ffffffffffffffffffffffffffffffffffffffff1673ffffffffffffffffffffffffffffffffffffffff163373ffffffffffffffffffffffffffffffffffffffff161461057e57600080fd5b600073ffffffffffffffffffffffffffffffffffffffff168373ffffffffffffffffffffffffffffffffffffffff1614156105ee576040517f08c379a00000000000000000000000000000000000000000000000000000000081526004016105e590611517565b60405180910390fd5b600073ffffffffffffffffffffffffffffffffffffffff168273ffffffffffffffffffffffffffffffffffffffff16141561065e576040517f08c379a000000000000000000000000000000000000000000000000000000000815260040161065590611477565b60405180910390fd5b80600860008573ffffffffffffffffffffffffffffffffffffffff1673ffffffffffffffffffffffffffffffffffffffff1681526020019081526020016000205410156106e0576040517f08c379a00000000000000000000000000000000000000000000000000000000081526004016106d7906114b7565b60405180910390fd5b80600960008573ffffffffffffffffffffffffffffffffffffffff1673ffffffffffffffffffffffffffffffffffffffff16815260200190815260200160002060008473ffffffffffffffffffffffffffffffffffffffff1673ffffffffffffffffffffffffffffffffffffffff168152602001908152602001600020819055508173ffffffffffffffffffffffffffffffffffffffff168373ffffffffffffffffffffffffffffffffffffffff167f8c5be1e5ebec7d5bd14f71427d1e84f3dd0314c0f7b2291e5b200ac8c7c3b925836040516107be9190611577565b60405180910390a3505050565b6000600154905090565b6000600360149054906101000a900460ff16905090565b6000600660009054906101000a900473ffffffffffffffffffffffffffffffffffffffff16905090565b6000600860008373ffffffffffffffffffffffffffffffffffffffff1673ffffffffffffffffffffffffffffffffffffffff168152602001908152602001600020549050919050565b6000600254905090565b60008054905090565b6000600360009054906101000a900473ffffffffffffffffffffffffffffffffffffffff16905090565b6060600580546108ab906116db565b80601f01602080910402602001604051908101604052809291908181526020018280546108d7906116db565b80156109245780601f106108f957610100808354040283529160200191610924565b820191906000526020600020905b81548152906001019060200180831161090757829003601f168201915b5050505050905090565b6000600a60008373ffffffffffffffffffffffffffffffffffffffff1673ffffffffffffffffffffffffffffffffffffffff16815260200190815260200160002060009054906101000a900460ff169050919050565b600360009054906101000a900473ffffffffffffffffffffffffffffffffffffffff1673ffffffffffffffffffffffffffffffffffffffff163373ffffffffffffffffffffffffffffffffffffffff16146109de57600080fd5b6109e88282610d99565b5050565b600360009054906101000a900473ffffffffffffffffffffffffffffffffffffffff1673ffffffffffffffffffffffffffffffffffffffff163373ffffffffffffffffffffffffffffffffffffffff1614610a4657600080fd5b62015180610a5f60075442610d8390919063ffffffff16565b10610a9f576040517f08c379a0000000000000000000000000000000000000000000000000000000008152600401610a96906114f7565b60405180910390fd5b42600781905550610aaf81610f44565b50565b600360009054906101000a900473ffffffffffffffffffffffffffffffffffffffff1673ffffffffffffffffffffffffffffffffffffffff163373ffffffffffffffffffffffffffffffffffffffff1614610b0c57600080fd5b610b15816110d8565b50565b600360009054906101000a900473ffffffffffffffffffffffffffffffffffffffff1673ffffffffffffffffffffffffffffffffffffffff16610b59611133565b73ffffffffffffffffffffffffffffffffffffffff1614610baf576040517f08c379a0000000000000000000000000000000000000000000000000000000008152600401610ba6906114d7565b60405180910390fd5b80600660006101000a81548173ffffffffffffffffffffffffffffffffffffffff021916908373ffffffffffffffffffffffffffffffffffffffff16021790555050565b600660009054906101000a900473ffffffffffffffffffffffffffffffffffffffff1673ffffffffffffffffffffffffffffffffffffffff163373ffffffffffffffffffffffffffffffffffffffff1614610c4d57600080fd5b610c9f81600860008573ffffffffffffffffffffffffffffffffffffffff1673ffffffffffffffffffffffffffffffffffffffff16815260200190815260200160002054610d6d90919063ffffffff16565b600860008473ffffffffffffffffffffffffffffffffffffffff1673ffffffffffffffffffffffffffffffffffffffff168152602001908152602001600020819055505050565b6000600960008473ffffffffffffffffffffffffffffffffffffffff1673ffffffffffffffffffffffffffffffffffffffff16815260200190815260200160002060008373ffffffffffffffffffffffffffffffffffffffff1673ffffffffffffffffffffffffffffffffffffffff16815260200190815260200160002054905092915050565b60008183610d7b91906115c9565b905092915050565b60008183610d91919061161f565b905092915050565b600073ffffffffffffffffffffffffffffffffffffffff168273ffffffffffffffffffffffffffffffffffffffff161415610e09576040517f08c379a0000000000000000000000000000000000000000000000000000000008152600401610e0090611497565b60405180910390fd5b6000600860008473ffffffffffffffffffffffffffffffffffffffff1673ffffffffffffffffffffffffffffffffffffffff16815260200190815260200160002054905081811015610e90576040517f08c379a0000000000000000000000000000000000000000000000000000000008152600401610e8790611557565b60405180910390fd5b818103600860008573ffffffffffffffffffffffffffffffffffffffff1673ffffffffffffffffffffffffffffffffffffffff16815260200190815260200160002081905550610eeb82600154610d6d90919063ffffffff16565b6001819055508273ffffffffffffffffffffffffffffffffffffffff167fcc16f5dbb4873280815c1ee09dbd06736cffcc184412cf7a71a0fdb75d397ca583604051610f379190611577565b60405180910390a2505050565b600073ffffffffffffffffffffffffffffffffffffffff16610f64611133565b73ffffffffffffffffffffffffffffffffffffffff161415610fbb576040517f08c379a0000000000000000000000000000000000000000000000000000000008152600401610fb290611537565b60405180910390fd5b80600281905550610fd781600154610d6d90919063ffffffff16565b6001819055506110368160086000610fed611133565b73ffffffffffffffffffffffffffffffffffffffff1673ffffffffffffffffffffffffffffffffffffffff16815260200190815260200160002054610d6d90919063ffffffff16565b60086000611042611133565b73ffffffffffffffffffffffffffffffffffffffff1673ffffffffffffffffffffffffffffffffffffffff16815260200190815260200160002081905550611088611133565b73ffffffffffffffffffffffffffffffffffffffff167f0f6798a560793a54c3bcfe86a93cde1e73087d944c0ea20544137d4121396885826040516110cd9190611577565b60405180910390a250565b6001600a60008373ffffffffffffffffffffffffffffffffffffffff1673ffffffffffffffffffffffffffffffffffffffff16815260200190815260200160002060006101000a81548160ff02191690831515021790555050565b600033905090565b60008135905061114a816119d3565b92915050565b60008135905061115f816119ea565b92915050565b60006020828403121561117b5761117a61176b565b5b60006111898482850161113b565b91505092915050565b600080604083850312156111a9576111a861176b565b5b60006111b78582860161113b565b92505060206111c88582860161113b565b9150509250929050565b6000806000606084860312156111eb576111ea61176b565b5b60006111f98682870161113b565b935050602061120a8682870161113b565b925050604061121b86828701611150565b9150509250925092565b6000806040838503121561123c5761123b61176b565b5b600061124a8582860161113b565b925050602061125b85828601611150565b9150509250929050565b60006020828403121561127b5761127a61176b565b5b600061128984828501611150565b91505092915050565b61129b81611653565b82525050565b6112aa81611665565b82525050565b60006112bb826115ad565b6112c581856115b8565b93506112d58185602086016116a8565b6112de81611770565b840191505092915050565b60006112f66022836115b8565b915061130182611781565b604082019050919050565b6000611319601f836115b8565b9150611324826117d0565b602082019050919050565b600061133c602a836115b8565b9150611347826117f9565b604082019050919050565b600061135f6048836115b8565b915061136a82611848565b606082019050919050565b6000611382602d836115b8565b915061138d826118bd565b604082019050919050565b60006113a56024836115b8565b91506113b08261190c565b604082019050919050565b60006113c8601f836115b8565b91506113d38261195b565b602082019050919050565b60006113eb6021836115b8565b91506113f682611984565b604082019050919050565b61140a81611691565b82525050565b6114198161169b565b82525050565b60006020820190506114346000830184611292565b92915050565b600060208201905061144f60008301846112a1565b92915050565b6000602082019050818103600083015261146f81846112b0565b905092915050565b60006020820190508181036000830152611490816112e9565b9050919050565b600060208201905081810360008301526114b08161130c565b9050919050565b600060208201905081810360008301526114d08161132f565b9050919050565b600060208201905081810360008301526114f081611352565b9050919050565b6000602082019050818103600083015261151081611375565b9050919050565b6000602082019050818103600083015261153081611398565b9050919050565b60006020820190508181036000830152611550816113bb565b9050919050565b60006020820190508181036000830152611570816113de565b9050919050565b600060208201905061158c6000830184611401565b92915050565b60006020820190506115a76000830184611410565b92915050565b600081519050919050565b600082825260208201905092915050565b60006115d482611691565b91506115df83611691565b9250827fffffffffffffffffffffffffffffffffffffffffffffffffffffffffffffffff038211156116145761161361170d565b5b828201905092915050565b600061162a82611691565b915061163583611691565b9250828210156116485761164761170d565b5b828203905092915050565b600061165e82611671565b9050919050565b60008115159050919050565b600073ffffffffffffffffffffffffffffffffffffffff82169050919050565b6000819050919050565b600060ff82169050919050565b60005b838110156116c65780820151818401526020810190506116ab565b838111156116d5576000848401525b50505050565b600060028204905060018216806116f357607f821691505b602082108114156117075761170661173c565b5b50919050565b7f4e487b7100000000000000000000000000000000000000000000000000000000600052601160045260246000fd5b7f4e487b7100000000000000000000000000000000000000000000000000000000600052602260045260246000fd5b600080fd5b6000601f19601f8301169050919050565b7f45524332303a20617070726f766520746f20746865207a65726f20616464726560008201527f7373000000000000000000000000000000000000000000000000000000000000602082015250565b7f45524332303a206275726e20746f20746865207a65726f206164647265737300600082015250565b7f45524332303a2062616c616e6365206c657373207468616e20616d6f756e742060008201527f746f20617070726f766500000000000000000000000000000000000000000000602082015250565b7f4f6e6c7920746865206f776e6572206f662074686520636f6e7472616374206360008201527f616e20736574207468652061646472657373206f662074686520696d706c656d60208201527f656e746174696f6e000000000000000000000000000000000000000000000000604082015250565b7f746869732066756e6374696f6e2063616e2062652063616c6c6564206a75737460008201527f206f6e6365207065722064617900000000000000000000000000000000000000602082015250565b7f45524332303a20617070726f76652066726f6d20746865207a65726f2061646460008201527f7265737300000000000000000000000000000000000000000000000000000000602082015250565b7f45524332303a206d696e7420746f20746865207a65726f206164647265737300600082015250565b7f45524332303a206275726e20616d756e7420657863656564732062616c616e6360008201527f6500000000000000000000000000000000000000000000000000000000000000602082015250565b6119dc81611653565b81146119e757600080fd5b50565b6119f381611691565b81146119fe57600080fd5b5056fea26469706673582212202c174b39d502725072e5f0e593ccac79a244779120b8850dbc97e85881ef95dc64736f6c63430008070033",
  "immutableReferences": {},
  "source": "// SPDX-License-Identifier: MIT\npragma solidity 0.8.7;\n\nimport \"@openzeppelin/contracts/utils/math/SafeMath.sol\";\nimport \"@openzeppelin/contracts/utils/Context.sol\";\nimport \"@openzeppelin/contracts/utils/Strings.sol\";\n\ncontract BoltTokenProxy is Context {\n    using SafeMath for uint256;\n    uint256 private initialSupply;\n    uint256 private currentSupply;\n    uint256 private totalMintedToday;\n    address private owner;\n    uint8 private numberOfDecimals;\n    string private nameOfToken;\n    string private symbolOfToken;\n    address private implementationAddress;\n    uint256 private lastTimestamp;\n\n    mapping(address => uint256) private balances;\n    mapping(address => mapping(address => uint256)) private allowances;\n\n    mapping(address => bool) private isPerpetualAddress;\n    \n\n    constructor(\n        uint256 _initialSupply,\n        uint256 _currenSupply,\n        string memory _name,\n        string memory _symbol,\n        uint8 _numberOfDecimals\n    ) {\n        initialSupply = _initialSupply;\n        currentSupply = _currenSupply;\n        owner = msg.sender;\n        _mint(_initialSupply);\n        nameOfToken = _name;\n        symbolOfToken = _symbol;\n        numberOfDecimals = _numberOfDecimals;\n    }\n\n    function addPerpetualAddress(address _newAddress) public onlyOwner {\n        _addPerpetualAddress(_newAddress);\n    }\n\n    function _addPerpetualAddress(address _newAddress) private {\n        isPerpetualAddress[_newAddress] = true;\n    }\n\n    function isTheAddressAPerpetual(address _address)\n        public\n        view\n        returns (bool)\n    {\n        return isPerpetualAddress[_address];\n    }\n\n    function subtractFunds(address _from, uint256 _value)\n        public\n        onlyImplementation\n    {\n        balances[_from] = balances[_from].sub(_value);\n    }\n\n    function addFunds(address _to, uint256 _value) public onlyImplementation {\n        balances[_to] = balances[_to].add(_value);\n    }\n\n    function getAddressOfImplementation() external view returns (address) {\n        return implementationAddress;\n    }\n\n    function setAddressOfImplementation(address _implementationAddress) public {\n        require(\n            _msgSender() == owner,\n            \"Only the owner of the contract can set the address of the implementation\"\n        );\n        implementationAddress = _implementationAddress;\n    }\n\n    function totalSupply() external view returns (uint256) {\n        return currentSupply;\n    }\n\n    function getInitialSupply() external view returns (uint256) {\n        return initialSupply;\n    }\n\n    function getOwner() external view returns (address) {\n        return owner;\n    }\n\n    function name() external view returns (string memory) {\n        return nameOfToken;\n    }\n\n    function symbol() external view returns (string memory) {\n        return symbolOfToken;\n    }\n\n    function decimals() external view returns (uint8) {\n        return numberOfDecimals;\n    }\n\n    function balanceOf(address _user) external view returns (uint256) {\n        return balances[_user];\n    }\n\n    function getNumberOfDecimals() external view returns (uint8) {\n        return numberOfDecimals;\n    }\n\n    function allowance(address _owner, address _spender)\n        public\n        view\n        returns (uint256)\n    {\n        return allowances[_owner][_spender];\n    }\n\n    function _approve(\n        address _owner,\n        address _spender,\n        uint256 _amount\n    ) public onlyImplementation {\n        require(_owner != address(0), \"ERC20: approve from the zero address\");\n        require(_spender != address(0), \"ERC20: approve to the zero address\");\n        require(\n            balances[_owner] >= _amount,\n            \"ERC20: balance less than amount to approve\"\n        );\n        allowances[_owner][_spender] = _amount;\n        emit Approval(_owner, _spender, _amount);\n    }\n\n    function mint(uint256 _amount) public onlyOwner oneTimeADay {\n        lastTimestamp = block.timestamp;\n        _mint(_amount);\n    }\n\n    function _mint(uint256 _amount) internal {\n        require(_msgSender() != address(0), \"ERC20: mint to the zero address\");\n        totalMintedToday = _amount;\n        currentSupply = currentSupply.add(_amount);\n        balances[_msgSender()] = balances[_msgSender()].add(_amount);\n        emit Mint(_msgSender(), _amount);\n    }\n\n    function burn(address _account, uint256 _amount) public onlyOwner {\n        _burn(_account, _amount);\n    }\n\n    function getTotalMintedToday() public view returns (uint256) {\n        return totalMintedToday;\n    }\n\n    function _burn(address _account, uint256 _amount) internal {\n        require(_account != address(0), \"ERC20: burn to the zero address\");\n        uint256 accountBalance = balances[_account];\n        require(accountBalance >= _amount, \"ERC20: burn amunt exceeds balance\");\n        unchecked {\n            balances[_account] = accountBalance - _amount;\n        }\n        currentSupply = currentSupply.add(_amount);\n        emit Burn(_account, _amount);\n    }\n\n    event Mint(address indexed _account, uint256 _amount);\n    event Burn(address indexed _account, uint256 _amount);\n    event Approval(\n        address indexed owner,\n        address indexed spender,\n        uint256 value\n    );\n    modifier onlyOwner() {\n        require(msg.sender == owner);\n        _;\n    }\n\n    modifier onlyImplementation() {\n        require(msg.sender == implementationAddress);\n        _;\n    }\n\n    modifier oneTimeADay() {\n        require(\n            block.timestamp.sub(lastTimestamp) < 1 days,\n            \"this function can be called just once per day\"\n        );\n        _;\n    }\n}\n",
  "sourcePath": "/Users/nick/Documents/work/StormContract/contracts/BoltTokenProxy.sol",
  "compiler": {
    "name": "solc",
    "version": "0.8.7+commit.e28d00a7.Emscripten.clang"
  },
  "schemaVersion": "3.4.2",
  "updatedAt": "2021-09-01T11:03:16.034Z",
  "networkType": "ethereum",
  "devdoc": {
    "kind": "dev",
    "methods": {},
    "version": 1
  },
  "userdoc": {
    "kind": "user",
    "methods": {},
    "version": 1
  }
}